{"abi":[{"type":"constructor","inputs":[],"stateMutability":"nonpayable"},{"type":"function","name":"DEFAULT_ADMIN_ROLE","inputs":[],"outputs":[{"name":"","type":"bytes32","internalType":"bytes32"}],"stateMutability":"view"},{"type":"function","name":"PAUSER_ROLE","inputs":[],"outputs":[{"name":"","type":"bytes32","internalType":"bytes32"}],"stateMutability":"view"},{"type":"function","name":"addStake","inputs":[{"name":"amount","type":"uint256","internalType":"uint256"}],"outputs":[],"stateMutability":"nonpayable"},{"type":"function","name":"allocateComputationUnits","inputs":[{"name":"workerIds","type":"uint256[]","internalType":"uint256[]"},{"name":"cus","type":"uint256[]","internalType":"uint256[]"}],"outputs":[],"stateMutability":"nonpayable"},{"type":"function","name":"averageBlockTime","inputs":[],"outputs":[{"name":"","type":"uint256","internalType":"uint256"}],"stateMutability":"view"},{"type":"function","name":"canUnstake","inputs":[{"name":"operator","type":"address","internalType":"address"}],"outputs":[{"name":"","type":"bool","internalType":"bool"}],"stateMutability":"view"},{"type":"function","name":"computationUnitsAmount","inputs":[{"name":"amount","type":"uint256","internalType":"uint256"},{"name":"durationBlocks","type":"uint256","internalType":"uint256"}],"outputs":[{"name":"","type":"uint256","internalType":"uint256"}],"stateMutability":"view"},{"type":"function","name":"computationUnitsAvailable","inputs":[{"name":"peerId","type":"bytes","internalType":"bytes"}],"outputs":[{"name":"","type":"uint256","internalType":"uint256"}],"stateMutability":"view"},{"type":"function","name":"defaultStrategy","inputs":[],"outputs":[{"name":"","type":"address","internalType":"address"}],"stateMutability":"view"},{"type":"function","name":"disableAutoExtension","inputs":[],"outputs":[],"stateMutability":"nonpayable"},{"type":"function","name":"enableAutoExtension","inputs":[],"outputs":[],"stateMutability":"nonpayable"},{"type":"function","name":"gatewayByAddress","inputs":[{"name":"","type":"address","internalType":"address"}],"outputs":[{"name":"gatewayId","type":"bytes32","internalType":"bytes32"}],"stateMutability":"view"},{"type":"function","name":"getActiveGateways","inputs":[{"name":"pageNumber","type":"uint256","internalType":"uint256"},{"name":"perPage","type":"uint256","internalType":"uint256"}],"outputs":[{"name":"","type":"bytes[]","internalType":"bytes[]"}],"stateMutability":"view"},{"type":"function","name":"getActiveGatewaysCount","inputs":[],"outputs":[{"name":"","type":"uint256","internalType":"uint256"}],"stateMutability":"view"},{"type":"function","name":"getCluster","inputs":[{"name":"peerId","type":"bytes","internalType":"bytes"}],"outputs":[{"name":"clusterPeerIds","type":"bytes[]","internalType":"bytes[]"}],"stateMutability":"view"},{"type":"function","name":"getGateway","inputs":[{"name":"peerId","type":"bytes","internalType":"bytes"}],"outputs":[{"name":"","type":"tuple","internalType":"struct IGatewayRegistry.Gateway","components":[{"name":"operator","type":"address","internalType":"address"},{"name":"ownAddress","type":"address","internalType":"address"},{"name":"peerId","type":"bytes","internalType":"bytes"},{"name":"metadata","type":"string","internalType":"string"}]}],"stateMutability":"view"},{"type":"function","name":"getMetadata","inputs":[{"name":"peerId","type":"bytes","internalType":"bytes"}],"outputs":[{"name":"","type":"string","internalType":"string"}],"stateMutability":"view"},{"type":"function","name":"getMyGateways","inputs":[{"name":"operator","type":"address","internalType":"address"}],"outputs":[{"name":"","type":"bytes[]","internalType":"bytes[]"}],"stateMutability":"view"},{"type":"function","name":"getRoleAdmin","inputs":[{"name":"role","type":"bytes32","internalType":"bytes32"}],"outputs":[{"name":"","type":"bytes32","internalType":"bytes32"}],"stateMutability":"view"},{"type":"function","name":"getStake","inputs":[{"name":"operator","type":"address","internalType":"address"}],"outputs":[{"name":"","type":"tuple","internalType":"struct IGatewayRegistry.Stake","components":[{"name":"amount","type":"uint256","internalType":"uint256"},{"name":"lockStart","type":"uint128","internalType":"uint128"},{"name":"lockEnd","type":"uint128","internalType":"uint128"},{"name":"duration","type":"uint128","internalType":"uint128"},{"name":"autoExtension","type":"bool","internalType":"bool"},{"name":"oldCUs","type":"uint256","internalType":"uint256"}]}],"stateMutability":"view"},{"type":"function","name":"getUsedStrategy","inputs":[{"name":"peerId","type":"bytes","internalType":"bytes"}],"outputs":[{"name":"","type":"address","internalType":"address"}],"stateMutability":"view"},{"type":"function","name":"grantRole","inputs":[{"name":"role","type":"bytes32","internalType":"bytes32"},{"name":"account","type":"address","internalType":"address"}],"outputs":[],"stateMutability":"nonpayable"},{"type":"function","name":"hasRole","inputs":[{"name":"role","type":"bytes32","internalType":"bytes32"},{"name":"account","type":"address","internalType":"address"}],"outputs":[{"name":"","type":"bool","internalType":"bool"}],"stateMutability":"view"},{"type":"function","name":"initialize","inputs":[{"name":"_token","type":"address","internalType":"contract IERC20WithMetadata"},{"name":"_router","type":"address","internalType":"contract IRouter"}],"outputs":[],"stateMutability":"nonpayable"},{"type":"function","name":"isStrategyAllowed","inputs":[{"name":"strategy","type":"address","internalType":"address"}],"outputs":[{"name":"","type":"bool","internalType":"bool"}],"stateMutability":"view"},{"type":"function","name":"mana","inputs":[],"outputs":[{"name":"","type":"uint256","internalType":"uint256"}],"stateMutability":"view"},{"type":"function","name":"maxGatewaysPerCluster","inputs":[],"outputs":[{"name":"","type":"uint256","internalType":"uint256"}],"stateMutability":"view"},{"type":"function","name":"minStake","inputs":[],"outputs":[{"name":"","type":"uint256","internalType":"uint256"}],"stateMutability":"view"},{"type":"function","name":"pause","inputs":[],"outputs":[],"stateMutability":"nonpayable"},{"type":"function","name":"paused","inputs":[],"outputs":[{"name":"","type":"bool","internalType":"bool"}],"stateMutability":"view"},{"type":"function","name":"register","inputs":[{"name":"peerId","type":"bytes","internalType":"bytes"}],"outputs":[],"stateMutability":"nonpayable"},{"type":"function","name":"register","inputs":[{"name":"peerId","type":"bytes","internalType":"bytes"},{"name":"metadata","type":"string","internalType":"string"},{"name":"gatewayAddress","type":"address","internalType":"address"}],"outputs":[],"stateMutability":"nonpayable"},{"type":"function","name":"register","inputs":[{"name":"peerId","type":"bytes","internalType":"bytes"},{"name":"metadata","type":"string","internalType":"string"}],"outputs":[],"stateMutability":"nonpayable"},{"type":"function","name":"register","inputs":[{"name":"peerId","type":"bytes[]","internalType":"bytes[]"},{"name":"metadata","type":"string[]","internalType":"string[]"},{"name":"gatewayAddress","type":"address[]","internalType":"address[]"}],"outputs":[],"stateMutability":"nonpayable"},{"type":"function","name":"renounceRole","inputs":[{"name":"role","type":"bytes32","internalType":"bytes32"},{"name":"callerConfirmation","type":"address","internalType":"address"}],"outputs":[],"stateMutability":"nonpayable"},{"type":"function","name":"revokeRole","inputs":[{"name":"role","type":"bytes32","internalType":"bytes32"},{"name":"account","type":"address","internalType":"address"}],"outputs":[],"stateMutability":"nonpayable"},{"type":"function","name":"router","inputs":[],"outputs":[{"name":"","type":"address","internalType":"contract IRouter"}],"stateMutability":"view"},{"type":"function","name":"setAverageBlockTime","inputs":[{"name":"_newAverageBlockTime","type":"uint256","internalType":"uint256"}],"outputs":[],"stateMutability":"nonpayable"},{"type":"function","name":"setGatewayAddress","inputs":[{"name":"peerId","type":"bytes","internalType":"bytes"},{"name":"newAddress","type":"address","internalType":"address"}],"outputs":[],"stateMutability":"nonpayable"},{"type":"function","name":"setIsStrategyAllowed","inputs":[{"name":"strategy","type":"address","internalType":"address"},{"name":"isAllowed","type":"bool","internalType":"bool"},{"name":"isDefault","type":"bool","internalType":"bool"}],"outputs":[],"stateMutability":"nonpayable"},{"type":"function","name":"setMana","inputs":[{"name":"_newMana","type":"uint256","internalType":"uint256"}],"outputs":[],"stateMutability":"nonpayable"},{"type":"function","name":"setMaxGatewaysPerCluster","inputs":[{"name":"_maxGatewaysPerCluster","type":"uint256","internalType":"uint256"}],"outputs":[],"stateMutability":"nonpayable"},{"type":"function","name":"setMetadata","inputs":[{"name":"peerId","type":"bytes","internalType":"bytes"},{"name":"metadata","type":"string","internalType":"string"}],"outputs":[],"stateMutability":"nonpayable"},{"type":"function","name":"setMinStake","inputs":[{"name":"_minStake","type":"uint256","internalType":"uint256"}],"outputs":[],"stateMutability":"nonpayable"},{"type":"function","name":"stake","inputs":[{"name":"amount","type":"uint256","internalType":"uint256"},{"name":"durationBlocks","type":"uint128","internalType":"uint128"}],"outputs":[],"stateMutability":"nonpayable"},{"type":"function","name":"stake","inputs":[{"name":"amount","type":"uint256","internalType":"uint256"},{"name":"durationBlocks","type":"uint128","internalType":"uint128"},{"name":"withAutoExtension","type":"bool","internalType":"bool"}],"outputs":[],"stateMutability":"nonpayable"},{"type":"function","name":"staked","inputs":[{"name":"operator","type":"address","internalType":"address"}],"outputs":[{"name":"","type":"uint256","internalType":"uint256"}],"stateMutability":"view"},{"type":"function","name":"supportsInterface","inputs":[{"name":"interfaceId","type":"bytes4","internalType":"bytes4"}],"outputs":[{"name":"","type":"bool","internalType":"bool"}],"stateMutability":"view"},{"type":"function","name":"token","inputs":[],"outputs":[{"name":"","type":"address","internalType":"contract IERC20WithMetadata"}],"stateMutability":"view"},{"type":"function","name":"unpause","inputs":[],"outputs":[],"stateMutability":"nonpayable"},{"type":"function","name":"unregister","inputs":[{"name":"peerId","type":"bytes","internalType":"bytes"}],"outputs":[],"stateMutability":"nonpayable"},{"type":"function","name":"unregister","inputs":[{"name":"peerId","type":"bytes[]","internalType":"bytes[]"}],"outputs":[],"stateMutability":"nonpayable"},{"type":"function","name":"unstake","inputs":[],"outputs":[],"stateMutability":"nonpayable"},{"type":"function","name":"useStrategy","inputs":[{"name":"strategy","type":"address","internalType":"address"}],"outputs":[],"stateMutability":"nonpayable"},{"type":"event","name":"AllocatedCUs","inputs":[{"name":"gateway","type":"address","indexed":true,"internalType":"address"},{"name":"peerId","type":"bytes","indexed":false,"internalType":"bytes"},{"name":"workerIds","type":"uint256[]","indexed":false,"internalType":"uint256[]"},{"name":"shares","type":"uint256[]","indexed":false,"internalType":"uint256[]"}],"anonymous":false},{"type":"event","name":"AutoextensionDisabled","inputs":[{"name":"gatewayOperator","type":"address","indexed":true,"internalType":"address"},{"name":"lockEnd","type":"uint128","indexed":false,"internalType":"uint128"}],"anonymous":false},{"type":"event","name":"AutoextensionEnabled","inputs":[{"name":"gatewayOperator","type":"address","indexed":true,"internalType":"address"}],"anonymous":false},{"type":"event","name":"AverageBlockTimeChanged","inputs":[{"name":"newBlockTime","type":"uint256","indexed":false,"internalType":"uint256"}],"anonymous":false},{"type":"event","name":"DefaultStrategyChanged","inputs":[{"name":"strategy","type":"address","indexed":true,"internalType":"address"}],"anonymous":false},{"type":"event","name":"GatewayAddressChanged","inputs":[{"name":"gatewayOperator","type":"address","indexed":true,"internalType":"address"},{"name":"peerId","type":"bytes","indexed":false,"internalType":"bytes"},{"name":"newAddress","type":"address","indexed":false,"internalType":"address"}],"anonymous":false},{"type":"event","name":"Initialized","inputs":[{"name":"version","type":"uint64","indexed":false,"internalType":"uint64"}],"anonymous":false},{"type":"event","name":"ManaChanged","inputs":[{"name":"newCuPerSQD","type":"uint256","indexed":false,"internalType":"uint256"}],"anonymous":false},{"type":"event","name":"MaxGatewaysPerClusterChanged","inputs":[{"name":"newAmount","type":"uint256","indexed":false,"internalType":"uint256"}],"anonymous":false},{"type":"event","name":"MetadataChanged","inputs":[{"name":"gatewayOperator","type":"address","indexed":true,"internalType":"address"},{"name":"peerId","type":"bytes","indexed":false,"internalType":"bytes"},{"name":"metadata","type":"string","indexed":false,"internalType":"string"}],"anonymous":false},{"type":"event","name":"MinStakeChanged","inputs":[{"name":"newAmount","type":"uint256","indexed":false,"internalType":"uint256"}],"anonymous":false},{"type":"event","name":"Paused","inputs":[{"name":"account","type":"address","indexed":false,"internalType":"address"}],"anonymous":false},{"type":"event","name":"Registered","inputs":[{"name":"gatewayOperator","type":"address","indexed":true,"internalType":"address"},{"name":"id","type":"bytes32","indexed":true,"internalType":"bytes32"},{"name":"peerId","type":"bytes","indexed":false,"internalType":"bytes"}],"anonymous":false},{"type":"event","name":"RoleAdminChanged","inputs":[{"name":"role","type":"bytes32","indexed":true,"internalType":"bytes32"},{"name":"previousAdminRole","type":"bytes32","indexed":true,"internalType":"bytes32"},{"name":"newAdminRole","type":"bytes32","indexed":true,"internalType":"bytes32"}],"anonymous":false},{"type":"event","name":"RoleGranted","inputs":[{"name":"role","type":"bytes32","indexed":true,"internalType":"bytes32"},{"name":"account","type":"address","indexed":true,"internalType":"address"},{"name":"sender","type":"address","indexed":true,"internalType":"address"}],"anonymous":false},{"type":"event","name":"RoleRevoked","inputs":[{"name":"role","type":"bytes32","indexed":true,"internalType":"bytes32"},{"name":"account","type":"address","indexed":true,"internalType":"address"},{"name":"sender","type":"address","indexed":true,"internalType":"address"}],"anonymous":false},{"type":"event","name":"Staked","inputs":[{"name":"gatewayOperator","type":"address","indexed":true,"internalType":"address"},{"name":"amount","type":"uint256","indexed":false,"internalType":"uint256"},{"name":"lockStart","type":"uint128","indexed":false,"internalType":"uint128"},{"name":"lockEnd","type":"uint128","indexed":false,"internalType":"uint128"},{"name":"computationUnits","type":"uint256","indexed":false,"internalType":"uint256"}],"anonymous":false},{"type":"event","name":"StrategyAllowed","inputs":[{"name":"strategy","type":"address","indexed":true,"internalType":"address"},{"name":"isAllowed","type":"bool","indexed":false,"internalType":"bool"}],"anonymous":false},{"type":"event","name":"Unpaused","inputs":[{"name":"account","type":"address","indexed":false,"internalType":"address"}],"anonymous":false},{"type":"event","name":"Unregistered","inputs":[{"name":"gatewayOperator","type":"address","indexed":true,"internalType":"address"},{"name":"peerId","type":"bytes","indexed":false,"internalType":"bytes"}],"anonymous":false},{"type":"event","name":"Unstaked","inputs":[{"name":"gatewayOperator","type":"address","indexed":true,"internalType":"address"},{"name":"amount","type":"uint256","indexed":false,"internalType":"uint256"}],"anonymous":false},{"type":"event","name":"UsedStrategyChanged","inputs":[{"name":"gatewayOperator","type":"address","indexed":true,"internalType":"address"},{"name":"strategy","type":"address","indexed":false,"internalType":"address"}],"anonymous":false},{"type":"error","name":"AccessControlBadConfirmation","inputs":[]},{"type":"error","name":"AccessControlUnauthorizedAccount","inputs":[{"name":"account","type":"address","internalType":"address"},{"name":"neededRole","type":"bytes32","internalType":"bytes32"}]},{"type":"error","name":"EnforcedPause","inputs":[]},{"type":"error","name":"ExpectedPause","inputs":[]},{"type":"error","name":"InvalidInitialization","inputs":[]},{"type":"error","name":"NotInitializing","inputs":[]}],"bytecode":{"object":"0x60806040523480156200001157600080fd5b506200001c62000022565b620000d6565b7ff0c57e16840df040f15088dc2f81fe391c3923bec73e23a9662efc9c229c6a00805468010000000000000000900460ff1615620000735760405163f92ee8a960e01b815260040160405180910390fd5b80546001600160401b0390811614620000d35780546001600160401b0319166001600160401b0390811782556040519081527fc7f505b2f371ae2175ee4913f4499e1f2633a7b5936321eed1cdaeb6115181d29060200160405180910390a15b50565b6145c880620000e66000396000f3fe608060405234801561001057600080fd5b50600436106103425760003560e01c806382fbdc9c116101b8578063bc9c0e6211610104578063e63ab1e9116100a2578063f586857a1161007c578063f586857a14610861578063f887ea4014610874578063fac5bb9b14610887578063fc0c546a1461089a57600080fd5b8063e63ab1e914610831578063e6c7f21b14610846578063eb4f16b51461084e57600080fd5b8063d87113e5116100de578063d87113e5146107e3578063dacfab0d146107eb578063dcefedaf146107fe578063e3fa31ed1461081e57600080fd5b8063bc9c0e62146107be578063bdb001a7146107c7578063d547741f146107d057600080fd5b806392255fbf11610171578063a217fddf1161014b578063a217fddf1461077d578063b1a7e27914610785578063b785a2e614610798578063b8050a5d146107ab57600080fd5b806392255fbf1461071357806394f3c7251461072657806398807d841461075157600080fd5b806382fbdc9c1461067f5780638456cb591461069257806385f4498b1461069a578063876ab349146106da5780638c80fd90146106ed57806391d148541461070057600080fd5b806336568abe11610292578063485cc9551161023057806367c1def91161020a57806367c1def91461050f57806375734be8146105325780637a766460146105525780637acfc9e21461066c57600080fd5b8063485cc955146104d1578063585a6a6d146104e45780635c975abb146104f757600080fd5b80633abcf38c1161026c5780633abcf38c146104835780633f4ba83a14610496578063429773fb1461049e57806344d4bea8146104be57600080fd5b806336568abe146104545780633736d85314610467578063375b3c0a1461047a57600080fd5b80631c0fa1c8116102ff57806327d6c032116102d957806327d6c032146104135780632c17a07f146104265780632def6620146104395780632f2ff15d1461044157600080fd5b80631c0fa1c8146103d6578063233dedf1146103f7578063248a9ca31461040057600080fd5b8063017a02c31461034757806301a993561461035c57806301ffc9a7146103855780630def8b8a146103a85780630fe9fb66146103bb57806313f117f2146103ce575b600080fd5b61035a6103553660046137d0565b6108ad565b005b61036f61036a36600461381b565b6109fb565b60405161037c9190613883565b60405180910390f35b6103986103933660046138e5565b610bd5565b604051901515815260200161037c565b61035a6103b636600461390f565b610c0a565b61035a6103c9366004613969565b610c52565b61035a610cc8565b6103e96103e436600461381b565b610d91565b60405190815260200161037c565b6103e9600a5481565b6103e961040e36600461390f565b610ed3565b61035a6104213660046139d4565b610ef5565b61036f610434366004613a15565b611035565b61035a6111ac565b61035a61044f366004613a32565b6113bd565b61035a610462366004613a32565b6113df565b61035a61047536600461390f565b611417565b6103e9600d5481565b61035a61049136600461390f565b611457565b61035a611497565b6103e96104ac366004613a15565b60046020526000908152604090205481565b6103e96104cc3660046139d4565b6114ba565b61035a6104df366004613a62565b6116c7565b61036f6104f23660046139d4565b6118ba565b6000805160206145738339815191525460ff16610398565b61039861051d366004613a15565b60076020526000908152604090205460ff1681565b6105456105403660046139d4565b611a40565b60405161037c9190613a90565b61060d610560366004613a15565b6040805160c081018252600080825260208201819052918101829052606081018290526080810182905260a0810191909152506001600160a01b0316600090815260036020818152604092839020835160c0810185526001820154815260028201546001600160801b0380821694830194909452600160801b9081900484169582019590955292810154918216606084015292900460ff161515608082015260049091015460a082015290565b60405161037c9190600060c0820190508251825260208301516001600160801b038082166020850152806040860151166040850152806060860151166060850152505060808301511515608083015260a083015160a083015292915050565b61035a61067a366004613ab8565b611b00565b61035a61068d3660046139d4565b611b10565b61035a611b2c565b6103986106a8366004613a15565b6001600160a01b031660009081526003602052604090206002015443600160801b9091046001600160801b0316111590565b61035a6106e8366004613af3565b611b4c565b61035a6106fb36600461390f565b611e6c565b61039861070e366004613a32565b611efc565b61035a610721366004613969565b611f34565b6107396107343660046139d4565b611f75565b6040516001600160a01b03909116815260200161037c565b6103e961075f366004613a15565b6001600160a01b031660009081526003602052604090206001015490565b6103e9600081565b61035a610793366004613c22565b611fac565b61035a6107a6366004613cbb565b6120b0565b61035a6107b9366004613a15565b61230c565b6103e9600c5481565b6103e9600b5481565b61035a6107de366004613a32565b6123ea565b6103e9612406565b61035a6107f9366004613d1a565b612417565b61081161080c3660046139d4565b612551565b60405161037c9190613d65565b61035a61082c366004613dc7565b6126f8565b6103e960008051602061453383398151915281565b61035a612cb8565b61035a61085c36600461390f565b612de0565b61035a61086f366004613dee565b613141565b600154610739906001600160a01b031681565b600854610739906001600160a01b031681565b600054610739906001600160a01b031681565b60006108b881613185565b821580156108da575081806108da57506008546001600160a01b038581169116145b1561093e5760405162461bcd60e51b815260206004820152602960248201527f43616e6e6f742073657420646973616c6c6f77656420737472617465677920616044820152681cc8191959985d5b1d60ba1b60648201526084015b60405180910390fd5b6001600160a01b0384166000908152600760205260409020805460ff191684151517905581156109b057600880546001600160a01b0319166001600160a01b0386169081179091556040517f84e184ce3e506721b995db9e77ad7527e97c83dd04bf98f5830508602bf837ad90600090a25b836001600160a01b03167f4e8e4980b101f6a8ebe870c7cf3767fb92422ef0c95a65b5cd750f9fce3c26e0846040516109ed911515815260200190565b60405180910390a250505050565b60606000610a09600561318f565b90506000610a178585613e39565b90508151811115610a57576040805160008082526020820190925290610a4d565b6060815260200190600190039081610a385790505b5092505050610bcf565b6000610a638583613e50565b90508251811115610a72575081515b6000610a7e8383613e63565b6001600160401b03811115610a9557610a95613add565b604051908082528060200260200182016040528015610ac857816020015b6060815260200190600190039081610ab35790505b509050825b82811015610bc85760026000868381518110610aeb57610aeb613e76565b602002602001015181526020019081526020016000206002018054610b0f90613e8c565b80601f0160208091040260200160405190810160405280929190818152602001828054610b3b90613e8c565b8015610b885780601f10610b5d57610100808354040283529160200191610b88565b820191906000526020600020905b815481529060010190602001808311610b6b57829003601f168201915b5050505050828583610b9a9190613e63565b81518110610baa57610baa613e76565b60200260200101819052508080610bc090613ec6565b915050610acd565b5093505050505b92915050565b60006001600160e01b03198216637965db0b60e01b1480610bcf57506301ffc9a760e01b6001600160e01b0319831614610bcf565b6000610c1581613185565b600b8290556040518281527fd48c454cdec818a86733db9fd6353a7b80d423e6a189ecac47703f9b5fa0801b906020015b60405180910390a15050565b6000610c5e858561319c565b509050610c6a81613225565b60038101610c79838583613f2d565b50336001600160a01b03167f512a85d60acb1212e9e49cec8fc20daed3ed43977be6a8db77faf2c859e79e7f86868686604051610cb99493929190614015565b60405180910390a25050505050565b33600090815260036020819052604090912090810154600190910190600160801b900460ff1615610d335760405162461bcd60e51b8152602060048201526015602482015274105d5d1bd15e1d195b9cda5bdb88195b98589b1959605a1b6044820152606401610935565b60028101805460ff60801b1916600160801b1790556001810180546001600160801b03166001600160801b031917905560405133907feff5f78e20f1cd92a537c3cdbaeaea11ad293aace5d7262ed93f2f33b42a828f90600090a250565b6000600954612710610da39190613e39565b610daf906103e8613e39565b600160009054906101000a90046001600160a01b03166001600160a01b0316638f0b335e6040518163ffffffff1660e01b8152600401602060405180830381865afa158015610e02573d6000803e3d6000fd5b505050506040513d601f19601f82011682018060405250810190610e269190614047565b6001600160a01b031663e9c85672600a5485610e429190613e39565b6040518263ffffffff1660e01b8152600401610e6091815260200190565b602060405180830381865afa158015610e7d573d6000803e3d6000fd5b505050506040513d601f19601f82011682018060405250810190610ea19190614064565b600b54610eae8587613e39565b610eb89190613e39565b610ec29190613e39565b610ecc9190614093565b9392505050565b6000908152600080516020614553833981519152602052604090206001015490565b610efd61328a565b600080610f0a848461319c565b91509150610f1782613225565b336000908152600360205260409020610f3390600501826132bd565b610f895760405162461bcd60e51b815260206004820152602160248201527f47617465776179206e6f742072656d6f7665642066726f6d206f70657261746f6044820152603960f91b6064820152608401610935565b610f946005826132bd565b506001808301546001600160a01b03166000908152600460209081526040808320839055848352600291829052822080546001600160a01b031990811682559381018054909416909355610fea9083018261374f565b610ff860038301600061374f565b5050336001600160a01b03167fa133cd95a0c9cb4f8272f86cd3bb48ba2bf54f982e60bba1618e1286925eddec85856040516109ed9291906140a7565b6001600160a01b03811660009081526003602052604081206060919061105d9060050161318f565b9050600081516001600160401b0381111561107a5761107a613add565b6040519080825280602002602001820160405280156110ad57816020015b60608152602001906001900390816110985790505b50905060005b82518110156111a457600260008483815181106110d2576110d2613e76565b6020026020010151815260200190815260200160002060020180546110f690613e8c565b80601f016020809104026020016040519081016040528092919081815260200182805461112290613e8c565b801561116f5780601f106111445761010080835404028352916020019161116f565b820191906000526020600020905b81548152906001019060200180831161115257829003601f168201915b505050505082828151811061118657611186613e76565b6020026020010181905250808061119c90613ec6565b9150506110b3565b509392505050565b6111b461328a565b3360009081526003602052604090206002015443600160801b9091046001600160801b031611156112195760405162461bcd60e51b815260206004820152600f60248201526e14dd185ad9481a5cc81b1bd8dad959608a1b6044820152606401610935565b336000908152600360205260409020600101548061126e5760405162461bcd60e51b81526020600482015260126024820152714e6f7468696e6720746f20756e7374616b6560701b6044820152606401610935565b3360009081526003602052604081206112899060050161318f565b905060005b81518110156112d7576112c48282815181106112ac576112ac613e76565b602002602001015160056132bd90919063ffffffff16565b50806112cf81613ec6565b91505061128e565b50336000818152600360208190526040808320600181018490556002810184905591820180546001600160881b031916905560049182018390559154915163a9059cbb60e01b815290810192909252602482018490526001600160a01b03169063a9059cbb906044016020604051808303816000875af115801561135f573d6000803e3d6000fd5b505050506040513d601f19601f8201168201806040525081019061138391906140c3565b5060405182815233907f0f5bb82176feb1b5e747e28471aa92156a04d9f3ab9f45f28e2d704232b93f759060200160405180910390a25050565b6113c682610ed3565b6113cf81613185565b6113d983836132c9565b50505050565b6001600160a01b03811633146114085760405163334bd91960e11b815260040160405180910390fd5b6114128282613375565b505050565b600061142281613185565b600a8290556040518281527f46a9c997a4d81c1f992b7ec20e34dfc97c0c67a86dc24f9ff1525718690bead390602001610c46565b600061146281613185565b600c8290556040518281527ff092d674fd06aab53c483be96eb202422ad493b452660e05adfe7f02aca08c1f90602001610c46565b6000805160206145338339815191526114af81613185565b6114b76133f1565b50565b6000806114c7848461319c565b5080546001600160a01b0316600090815260036020818152604092839020835160c0810185526001820154815260028201546001600160801b0380821694830194909452600160801b9081900484169582018690529382015492831660608201529290910460ff16151560808301526004015460a0820152919250439081106115565760009350505050610bcf565b60008183602001516001600160801b03161161158c57611587836000015184606001516001600160801b0316610d91565b611592565b8260a001515b90506000600160009054906101000a90046001600160a01b03166001600160a01b031663853b97c26040518163ffffffff1660e01b8152600401602060405180830381865afa1580156115e9573d6000803e3d6000fd5b505050506040513d601f19601f8201168201806040525081019061160d9190614047565b6001600160a01b03166357d775f86040518163ffffffff1660e01b8152600401602060405180830381865afa15801561164a573d6000803e3d6000fd5b505050506040513d601f19601f8201168201806040525081019061166e91906140e0565b6001600160801b031690508084606001516001600160801b03161161169957509350610bcf92505050565b60608401516001600160801b03166116b18284613e39565b6116bb9190614093565b98975050505050505050565b7ff0c57e16840df040f15088dc2f81fe391c3923bec73e23a9662efc9c229c6a008054600160401b810460ff1615906001600160401b031660008115801561170c5750825b90506000826001600160401b031660011480156117285750303b155b905081158015611736575080155b156117545760405163f92ee8a960e01b815260040160405180910390fd5b845467ffffffffffffffff19166001178555831561177e57845460ff60401b1916600160401b1785555b611786613451565b600080546001600160a01b03808a166001600160a01b0319928316811790935560018054918a16919092161790556040805163313ce56760e01b8152905163313ce567916004808201926020929091908290030181865afa1580156117ef573d6000803e3d6000fd5b505050506040513d601f19601f8201168201806040525081019061181391906140fd565b61181e90600a614204565b6009556000805260076020527f6d5257204ebe7d88fd91ae87941cb2dd9d8062b64ae5a2bd2d28ec40b9fbf6df805460ff19166001908117909155600c600a8181556103e8600b559055600d5583156118b157845460ff60401b19168555604051600181527fc7f505b2f371ae2175ee4913f4499e1f2633a7b5936321eed1cdaeb6115181d29060200160405180910390a15b50505050505050565b606060006118c8848461319c565b5080546001600160a01b03166000908152600360205260408120919250906118f29060050161318f565b905080516001600160401b0381111561190d5761190d613add565b60405190808252806020026020018201604052801561194057816020015b606081526020019060019003908161192b5790505b50925060005b8151811015611a37576002600083838151811061196557611965613e76565b60200260200101518152602001908152602001600020600201805461198990613e8c565b80601f01602080910402602001604051908101604052809291908181526020018280546119b590613e8c565b8015611a025780601f106119d757610100808354040283529160200191611a02565b820191906000526020600020905b8154815290600101906020018083116119e557829003601f168201915b5050505050848281518110611a1957611a19613e76565b60200260200101819052508080611a2f90613ec6565b915050611946565b50505092915050565b6060600260008484604051611a56929190614213565b604051809103902081526020019081526020016000206003018054611a7a90613e8c565b80601f0160208091040260200160405190810160405280929190818152602001828054611aa690613e8c565b8015611af35780601f10611ac857610100808354040283529160200191611af3565b820191906000526020600020905b815481529060010190602001808311611ad657829003601f168201915b5050505050905092915050565b611b0c828260006126f8565b5050565b611b0c8282604051806020016040528060008152506000611b4c565b600080516020614533833981519152611b4481613185565b6114b761347d565b611b5461328a565b82611ba15760405162461bcd60e51b815260206004820152601760248201527f43616e6e6f742073657420656d707479207065657249640000000000000000006044820152606401610935565b60008484604051611bb3929190614213565b60408051918290039091206000818152600260205291909120549091506001600160a01b031615611c265760405162461bcd60e51b815260206004820152601960248201527f50656572496420616c72656164792072656769737465726564000000000000006044820152606401610935565b600c54336000908152600360205260409020611c44906005016134c6565b10611c915760405162461bcd60e51b815260206004820181905260248201527f546f6f206d616e7920676174657761797320696e2074686520636c75737465726044820152606401610935565b3360009081526003602052604090205460ff16611cbd57600854611cbd906001600160a01b031661230c565b6040518060800160405280336001600160a01b03168152602001836001600160a01b0316815260200186868080601f016020809104026020016040519081016040528093929190818152602001838380828437600092018290525093855250505060209182018690528381526002808352604091829020845181546001600160a01b03199081166001600160a01b03928316178355948601516001830180549096169116179093559083015190820190611d779082614223565b5060608201516003820190611d8c9082614223565b5050336000908152600360205260409020611dab9150600501826134d0565b503360009081526003602052604090206001015415611dd157611dcf6005826134d0565b505b80336001600160a01b03167fb9c7babb56df9f2da4a30811a6c778e4e68af88b72712d56cf62c5516e20e1998787604051611e0d9291906140a7565b60405180910390a3336001600160a01b03167f512a85d60acb1212e9e49cec8fc20daed3ed43977be6a8db77faf2c859e79e7f868686604051611e52939291906142e2565b60405180910390a2611e65858584612417565b5050505050565b6000611e7781613185565b60008211611ec75760405162461bcd60e51b815260206004820152601960248201527f4d696e207374616b652073686f756c64206e6f742062652030000000000000006044820152606401610935565b600d8290556040518281527f4d36185d86b6e1aefe7e3c72bbcf2329ea433a9dc2655a34739abe83a7ce74a090602001610c46565b6000918252600080516020614553833981519152602090815260408084206001600160a01b0393909316845291905290205460ff1690565b6113d9848484848080601f01602080910402602001604051908101604052809392919081815260200183838082843760009201829052509250611b4c915050565b600080611f82848461319c565b50546001600160a01b03908116600090815260036020526040902054610100900416949350505050565b848314611fcb5760405162461bcd60e51b815260040161093590614312565b848114611fea5760405162461bcd60e51b815260040161093590614312565b60005b858110156118b15761209e87878381811061200a5761200a613e76565b905060200281019061201c919061433b565b87878581811061202e5761202e613e76565b9050602002810190612040919061433b565b8080601f01602080910402602001604051908101604052809392919081815260200183838082843760009201919091525089925088915087905081811061208957612089613e76565b90506020020160208101906106e89190613a15565b806120a881613ec6565b915050611fed565b6120b861328a565b8281146120d75760405162461bcd60e51b815260040161093590614312565b33600090815260046020818152604080842054845260028252808420600154825163367fed3f60e21b8152925191959485946001600160a01b039092169363d9ffb4fc93818301939290918290030181865afa15801561213b573d6000803e3d6000fd5b505050506040513d601f19601f8201168201806040525081019061215f9190614047565b6001600160a01b031663c84a49226040518163ffffffff1660e01b8152600401602060405180830381865afa15801561219c573d6000803e3d6000fd5b505050506040513d601f19601f820116820180604052508101906121c09190614064565b905060005b8681101561226457818888838181106121e0576121e0613e76565b905060200201351061222c5760405162461bcd60e51b815260206004820152601560248201527415dbdc9ad95c88191bd95cc81b9bdd08195e1a5cdd605a1b6044820152606401610935565b85858281811061223e5761223e613e76565b90506020020135836122509190613e50565b92508061225c81613ec6565b9150506121c5565b506127108211156122b75760405162461bcd60e51b815260206004820152601a60248201527f4f7665722031303025206f662043557320616c6c6f63617465640000000000006044820152606401610935565b336001600160a01b03167fa27699da150f8443c51cda13c28a1cbfb78ee3b4055de58197e770999fc23fbd84600201898989896040516122fb9594939291906143b3565b60405180910390a250505050505050565b6001600160a01b03811660009081526007602052604090205460ff1661236b5760405162461bcd60e51b815260206004820152601460248201527314dd1c985d1959de481b9bdd08185b1b1bddd95960621b6044820152606401610935565b3360008181526003602052604090819020805460ff196001600160a01b03861661010002166001600160a81b0319909116176001179055517fe31c0bedb29ec4df4a7c3d8d8c0e4ad6bf3648906837d5400d61a94410c5e5bb906123df9084906001600160a01b0391909116815260200190565b60405180910390a250565b6123f382610ed3565b6123fc81613185565b6113d98383613375565b600061241260056134c6565b905090565b600080612424858561319c565b9150915061243182613225565b60018201546001600160a01b0316156124625760018201546001600160a01b03166000908152600460205260408120555b6001600160a01b038316156124fe576001600160a01b038316600090815260046020526040902054156124e25760405162461bcd60e51b815260206004820152602260248201527f47617465776179206164647265737320616c7265616479207265676973746572604482015261195960f21b6064820152608401610935565b6001600160a01b03831660009081526004602052604090208190555b6001820180546001600160a01b0319166001600160a01b03851617905560405133907f39cabfa8731da74e931aee9746250190051269d4d0c37ec9fb8276a32b1f660190610cb99088908890889061445f565b6040805160808101825260008082526020820152606091810182905281810191909152600260008484604051612588929190614213565b60408051918290039091208252602080830193909352908101600020815160808101835281546001600160a01b0390811682526001830154169381019390935260028101805491928401916125dc90613e8c565b80601f016020809104026020016040519081016040528092919081815260200182805461260890613e8c565b80156126555780601f1061262a57610100808354040283529160200191612655565b820191906000526020600020905b81548152906001019060200180831161263857829003601f168201915b5050505050815260200160038201805461266e90613e8c565b80601f016020809104026020016040519081016040528092919081815260200182805461269a90613e8c565b80156126e75780601f106126bc576101008083540402835291602001916126e7565b820191906000526020600020905b8154815290600101906020018083116126ca57829003601f168201915b505050505081525050905092915050565b61270061328a565b600d548310156127525760405162461bcd60e51b815260206004820152601b60248201527f43616e6e6f74207374616b652062656c6f77206d696e5374616b6500000000006044820152606401610935565b600160009054906101000a90046001600160a01b03166001600160a01b031663853b97c26040518163ffffffff1660e01b8152600401602060405180830381865afa1580156127a5573d6000803e3d6000fd5b505050506040513d601f19601f820116820180604052508101906127c99190614047565b6001600160a01b03166357d775f86040518163ffffffff1660e01b8152600401602060405180830381865afa158015612806573d6000803e3d6000fd5b505050506040513d601f19601f8201168201806040525081019061282a91906140e0565b6001600160801b0316826001600160801b031610156128975760405162461bcd60e51b815260206004820152602360248201527f43616e6e6f74207374616b6520666f72206c657373207468616e20616e2065706044820152620dec6d60eb1b6064820152608401610935565b63058fd400600a54836001600160801b03166128b39190613e39565b11156128fa5760405162461bcd60e51b81526020600482015260166024820152754c6f636b206475726174696f6e20746f6f206c6f6e6760501b6044820152606401610935565b336000908152600360205260409020600101541561296e5760405162461bcd60e51b815260206004820152602b60248201527f5374616b6520616c7265616479206578697374732c2063616c6c20616464537460448201526a185ad9481a5b9cdd19585960aa1b6064820152608401610935565b600061298384846001600160801b0316610d91565b90506000600160009054906101000a90046001600160a01b03166001600160a01b031663853b97c26040518163ffffffff1660e01b8152600401602060405180830381865afa1580156129da573d6000803e3d6000fd5b505050506040513d601f19601f820116820180604052508101906129fe9190614047565b6001600160a01b031663aea0e78b6040518163ffffffff1660e01b8152600401602060405180830381865afa158015612a3b573d6000803e3d6000fd5b505050506040513d601f19601f82011682018060405250810190612a5f91906140e0565b9050600083612a7757612a72858361448b565b612a80565b6001600160801b035b6040805160c0810182528881526001600160801b0385811660208084019182528583168486019081528b8416606086019081528b151560808701908152600060a088018181523382526003958690529881209751600189015594519251928616600160801b9387168402176002880155905192860180549151939095166001600160881b03199091161791151502179091559151600482015591925090612b299060050161318f565b905060005b8151811015612b7757612b64828281518110612b4c57612b4c613e76565b602002602001015160056134d090919063ffffffff16565b5080612b6f81613ec6565b915050612b2e565b506000546040516323b872dd60e01b8152336004820152306024820152604481018990526001600160a01b03909116906323b872dd906064016020604051808303816000875af1158015612bcf573d6000803e3d6000fd5b505050506040513d601f19601f82011682018060405250810190612bf391906140c3565b50604080518881526001600160801b03858116602083015284168183015260608101869052905133917f85362f63fb0e3050a216decb3a7297e2aaff6cbf5b22583c073118d7efc8a47b919081900360800190a28415612c7d5760405133907feff5f78e20f1cd92a537c3cdbaeaea11ad293aace5d7262ed93f2f33b42a828f90600090a26118b1565b6040516001600160801b038316815233907f17679fc77cdf7f6b7d2af4cb30497f3e81088fde6fdb20ca48d31372bc2af006906020016122fb565b33600090815260036020819052604090912090810154600190910190600160801b900460ff16612d235760405162461bcd60e51b8152602060048201526016602482015275105d5d1bd15e1d195b9cda5bdb88191a5cd8589b195960521b6044820152606401610935565b60028101805460ff60801b19811690915560018201546001600160801b03918216918291612d53914391166134dc565b612d5d91906144ab565b612d6890600161448b565b612d7291906144d1565b6001820154612d8a91906001600160801b031661448b565b6001820180546001600160801b03908116600160801b938216840217918290556040519290910416815233907f17679fc77cdf7f6b7d2af4cb30497f3e81088fde6fdb20ca48d31372bc2af006906020016123df565b612de861328a565b3360009081526003602052604090206001018054612e595760405162461bcd60e51b815260206004820152602860248201527f43616e6e6f7420616464207374616b65207768656e206e6f7468696e672077616044820152671cc81cdd185ad95960c21b6064820152608401610935565b6001810154436001600160801b039091161115612eaf5760405162461bcd60e51b815260206004820152601460248201527314dd185ad9481a5cc81b9bdd081cdd185c9d195960621b6044820152606401610935565b6002810154600090612ecb9084906001600160801b0316610d91565b82546002840154919250600091612eeb91906001600160801b0316610d91565b9050600160009054906101000a90046001600160a01b03166001600160a01b031663853b97c26040518163ffffffff1660e01b8152600401602060405180830381865afa158015612f40573d6000803e3d6000fd5b505050506040513d601f19601f82011682018060405250810190612f649190614047565b6001600160a01b031663aea0e78b6040518163ffffffff1660e01b8152600401602060405180830381865afa158015612fa1573d6000803e3d6000fd5b505050506040513d601f19601f82011682018060405250810190612fc591906140e0565b6001840180546001600160801b0319166001600160801b03929092169190911790556002830154600160801b900460ff1661301f576002830154600184015461301a916001600160801b03908116911661448b565b613028565b6001600160801b035b6001840180546001600160801b03928316600160801b02921691909117905560038301819055825484908490600090613062908490613e50565b90915550506000546040516323b872dd60e01b8152336004820152306024820152604481018690526001600160a01b03909116906323b872dd906064016020604051808303816000875af11580156130be573d6000803e3d6000fd5b505050506040513d601f19601f820116820180604052508101906130e291906140c3565b506001830154604080518681526001600160801b038084166020830152600160801b909304909216908201526060810183905233907f85362f63fb0e3050a216decb3a7297e2aaff6cbf5b22583c073118d7efc8a47b906080016109ed565b60005b818110156114125761317383838381811061316157613161613e76565b9050602002810190610421919061433b565b8061317d81613ec6565b915050613144565b6114b78133613509565b60606000610ecc83613542565b60008083836040516131af929190614213565b6040805191829003909120600081815260026020529190912080549093509091506001600160a01b031661321e5760405162461bcd60e51b815260206004820152601660248201527511d85d195dd85e481b9bdd081c9959da5cdd195c995960521b6044820152606401610935565b9250929050565b80546001600160a01b031633146114b75760405162461bcd60e51b8152602060048201526024808201527f4f6e6c79206f70657261746f722063616e2063616c6c20746869732066756e636044820152633a34b7b760e11b6064820152608401610935565b6000805160206145738339815191525460ff16156132bb5760405163d93c066560e01b815260040160405180910390fd5b565b6000610ecc838361359e565b60006000805160206145538339815191526132e48484611efc565b613364576000848152602082815260408083206001600160a01b03871684529091529020805460ff1916600117905561331a3390565b6001600160a01b0316836001600160a01b0316857f2f8788117e7eff1d82e926ec794901d17c78024a50270940304540a733656f0d60405160405180910390a46001915050610bcf565b6000915050610bcf565b5092915050565b60006000805160206145538339815191526133908484611efc565b15613364576000848152602082815260408083206001600160a01b0387168085529252808320805460ff1916905551339287917ff6391f5c32d9c69d2a47ea670b442974b53935d1edc7fd64eb21e047a839171b9190a46001915050610bcf565b6133f9613687565b600080516020614573833981519152805460ff191681557f5db9ee0a495bf2e6ff9c91a7834c1ba4fdd244a5e8aa4e537bd38aeae4b073aa335b6040516001600160a01b03909116815260200160405180910390a150565b6134596136b7565b6134646000336132c9565b506114b7600080516020614533833981519152336132c9565b61348561328a565b600080516020614573833981519152805460ff191660011781557f62e78cea01bee320cd4e420270b5ea74000d11b0c9f74754ebdbfc544b05a25833613433565b6000610bcf825490565b6000610ecc8383613700565b6000826001600160801b0316826001600160801b0316106134ff57506000610bcf565b610ecc82846144fc565b6135138282611efc565b611b0c5760405163e2517d3f60e01b81526001600160a01b038216600482015260248101839052604401610935565b60608160000180548060200260200160405190810160405280929190818152602001828054801561359257602002820191906000526020600020905b81548152602001906001019080831161357e575b50505050509050919050565b600081815260018301602052604081205480156133645760006135c2600183613e63565b85549091506000906135d690600190613e63565b905080821461363b5760008660000182815481106135f6576135f6613e76565b906000526020600020015490508087600001848154811061361957613619613e76565b6000918252602080832090910192909255918252600188019052604090208390555b855486908061364c5761364c61451c565b600190038181906000526020600020016000905590558560010160008681526020019081526020016000206000905560019350505050610bcf565b6000805160206145738339815191525460ff166132bb57604051638dfc202b60e01b815260040160405180910390fd5b7ff0c57e16840df040f15088dc2f81fe391c3923bec73e23a9662efc9c229c6a0054600160401b900460ff166132bb57604051631afcd79f60e31b815260040160405180910390fd5b600081815260018301602052604081205461374757508154600181810184556000848152602080822090930184905584548482528286019093526040902091909155610bcf565b506000610bcf565b50805461375b90613e8c565b6000825580601f1061376b575050565b601f0160209004906000526020600020908101906114b791905b808211156137995760008155600101613785565b5090565b6001600160a01b03811681146114b757600080fd5b80356137bd8161379d565b919050565b80151581146114b757600080fd5b6000806000606084860312156137e557600080fd5b83356137f08161379d565b92506020840135613800816137c2565b91506040840135613810816137c2565b809150509250925092565b6000806040838503121561382e57600080fd5b50508035926020909101359150565b6000815180845260005b8181101561386357602081850181015186830182015201613847565b506000602082860101526020601f19601f83011685010191505092915050565b6000602080830181845280855180835260408601915060408160051b870101925083870160005b828110156138d857603f198886030184526138c685835161383d565b945092850192908501906001016138aa565b5092979650505050505050565b6000602082840312156138f757600080fd5b81356001600160e01b031981168114610ecc57600080fd5b60006020828403121561392157600080fd5b5035919050565b60008083601f84011261393a57600080fd5b5081356001600160401b0381111561395157600080fd5b60208301915083602082850101111561321e57600080fd5b6000806000806040858703121561397f57600080fd5b84356001600160401b038082111561399657600080fd5b6139a288838901613928565b909650945060208701359150808211156139bb57600080fd5b506139c887828801613928565b95989497509550505050565b600080602083850312156139e757600080fd5b82356001600160401b038111156139fd57600080fd5b613a0985828601613928565b90969095509350505050565b600060208284031215613a2757600080fd5b8135610ecc8161379d565b60008060408385031215613a4557600080fd5b823591506020830135613a578161379d565b809150509250929050565b60008060408385031215613a7557600080fd5b8235613a808161379d565b91506020830135613a578161379d565b602081526000610ecc602083018461383d565b6001600160801b03811681146114b757600080fd5b60008060408385031215613acb57600080fd5b823591506020830135613a5781613aa3565b634e487b7160e01b600052604160045260246000fd5b60008060008060608587031215613b0957600080fd5b84356001600160401b0380821115613b2057600080fd5b613b2c88838901613928565b90965094506020870135915080821115613b4557600080fd5b818701915087601f830112613b5957600080fd5b813581811115613b6b57613b6b613add565b604051601f8201601f19908116603f01168101908382118183101715613b9357613b93613add565b816040528281528a6020848701011115613bac57600080fd5b826020860160208301376000602084830101528096505050505050613bd3604086016137b2565b905092959194509250565b60008083601f840112613bf057600080fd5b5081356001600160401b03811115613c0757600080fd5b6020830191508360208260051b850101111561321e57600080fd5b60008060008060008060608789031215613c3b57600080fd5b86356001600160401b0380821115613c5257600080fd5b613c5e8a838b01613bde565b90985096506020890135915080821115613c7757600080fd5b613c838a838b01613bde565b90965094506040890135915080821115613c9c57600080fd5b50613ca989828a01613bde565b979a9699509497509295939492505050565b60008060008060408587031215613cd157600080fd5b84356001600160401b0380821115613ce857600080fd5b613cf488838901613bde565b90965094506020870135915080821115613d0d57600080fd5b506139c887828801613bde565b600080600060408486031215613d2f57600080fd5b83356001600160401b03811115613d4557600080fd5b613d5186828701613928565b90945092505060208401356138108161379d565b60208152600060018060a01b0380845116602084015280602085015116604084015250604083015160806060840152613da160a084018261383d565b90506060840151601f19848303016080850152613dbe828261383d565b95945050505050565b600080600060608486031215613ddc57600080fd5b83359250602084013561380081613aa3565b60008060208385031215613e0157600080fd5b82356001600160401b03811115613e1757600080fd5b613a0985828601613bde565b634e487b7160e01b600052601160045260246000fd5b8082028115828204841417610bcf57610bcf613e23565b80820180821115610bcf57610bcf613e23565b81810381811115610bcf57610bcf613e23565b634e487b7160e01b600052603260045260246000fd5b600181811c90821680613ea057607f821691505b602082108103613ec057634e487b7160e01b600052602260045260246000fd5b50919050565b600060018201613ed857613ed8613e23565b5060010190565b601f82111561141257600081815260208120601f850160051c81016020861015613f065750805b601f850160051c820191505b81811015613f2557828155600101613f12565b505050505050565b6001600160401b03831115613f4457613f44613add565b613f5883613f528354613e8c565b83613edf565b6000601f841160018114613f8c5760008515613f745750838201355b600019600387901b1c1916600186901b178355611e65565b600083815260209020601f19861690835b82811015613fbd5786850135825560209485019460019092019101613f9d565b5086821015613fda5760001960f88860031b161c19848701351681555b505060018560011b0183555050505050565b81835281816020850137506000828201602090810191909152601f909101601f19169091010190565b604081526000614029604083018688613fec565b828103602084015261403c818587613fec565b979650505050505050565b60006020828403121561405957600080fd5b8151610ecc8161379d565b60006020828403121561407657600080fd5b5051919050565b634e487b7160e01b600052601260045260246000fd5b6000826140a2576140a261407d565b500490565b6020815260006140bb602083018486613fec565b949350505050565b6000602082840312156140d557600080fd5b8151610ecc816137c2565b6000602082840312156140f257600080fd5b8151610ecc81613aa3565b60006020828403121561410f57600080fd5b815160ff81168114610ecc57600080fd5b600181815b8085111561415b57816000190482111561414157614141613e23565b8085161561414e57918102915b93841c9390800290614125565b509250929050565b60008261417257506001610bcf565b8161417f57506000610bcf565b8160018114614195576002811461419f576141bb565b6001915050610bcf565b60ff8411156141b0576141b0613e23565b50506001821b610bcf565b5060208310610133831016604e8410600b84101617156141de575081810a610bcf565b6141e88383614120565b80600019048211156141fc576141fc613e23565b029392505050565b6000610ecc60ff841683614163565b8183823760009101908152919050565b81516001600160401b0381111561423c5761423c613add565b6142508161424a8454613e8c565b84613edf565b602080601f831160018114614285576000841561426d5750858301515b600019600386901b1c1916600185901b178555613f25565b600085815260208120601f198616915b828110156142b457888601518255948401946001909101908401614295565b50858210156142d25787850151600019600388901b60f8161c191681555b5050505050600190811b01905550565b6040815260006142f6604083018587613fec565b8281036020840152614308818561383d565b9695505050505050565b6020808252600f908201526e098cadccee8d040dad2e6dac2e8c6d608b1b604082015260600190565b6000808335601e1984360301811261435257600080fd5b8301803591506001600160401b0382111561436c57600080fd5b60200191503681900382131561321e57600080fd5b81835260006001600160fb1b0383111561439a57600080fd5b8260051b80836020870137939093016020019392505050565b6060815260008087546143c581613e8c565b80606086015260806001808416600081146143e7576001811461440157614432565b60ff1985168884015283151560051b880183019550614432565b8c60005260208060002060005b868110156144295781548b820187015290840190820161440e565b8a018501975050505b5050505050828103602084015261444a818789614381565b905082810360408401526116bb818587614381565b604081526000614473604083018587613fec565b905060018060a01b0383166020830152949350505050565b6001600160801b0381811683821601908082111561336e5761336e613e23565b60006001600160801b03808416806144c5576144c561407d565b92169190910492915050565b6001600160801b038181168382160280821691908281146144f4576144f4613e23565b505092915050565b6001600160801b0382811682821603908082111561336e5761336e613e23565b634e487b7160e01b600052603160045260246000fdfe65d7a28e3265b37a6474929f336521b332c1681b933f6cb9f3376673440d862a02dd7bc7dec4dceedda775e58dd541e08a116c6c53815c0bd028192f7b626800cd5ed15c6e187e77e9aee88184c21f4f2182ab5827cb3b7e07fbedcd63f03300a26469706673582212202862ba75d45437475f86c2a6f44f9bcfae549b78a2afa1f326b6c0aec020a27664736f6c63430008140033","linkReferences":{}},"methodIdentifiers":{"DEFAULT_ADMIN_ROLE()":"a217fddf","PAUSER_ROLE()":"e63ab1e9","addStake(uint256)":"eb4f16b5","allocateComputationUnits(uint256[],uint256[])":"b785a2e6","averageBlockTime()":"233dedf1","canUnstake(address)":"85f4498b","computationUnitsAmount(uint256,uint256)":"1c0fa1c8","computationUnitsAvailable(bytes)":"44d4bea8","defaultStrategy()":"fac5bb9b","disableAutoExtension()":"e6c7f21b","enableAutoExtension()":"13f117f2","gatewayByAddress(address)":"429773fb","getActiveGateways(uint256,uint256)":"01a99356","getActiveGatewaysCount()":"d87113e5","getCluster(bytes)":"585a6a6d","getGateway(bytes)":"dcefedaf","getMetadata(bytes)":"75734be8","getMyGateways(address)":"2c17a07f","getRoleAdmin(bytes32)":"248a9ca3","getStake(address)":"7a766460","getUsedStrategy(bytes)":"94f3c725","grantRole(bytes32,address)":"2f2ff15d","hasRole(bytes32,address)":"91d14854","initialize(address,address)":"485cc955","isStrategyAllowed(address)":"67c1def9","mana()":"bdb001a7","maxGatewaysPerCluster()":"bc9c0e62","minStake()":"375b3c0a","pause()":"8456cb59","paused()":"5c975abb","register(bytes)":"82fbdc9c","register(bytes,string)":"92255fbf","register(bytes,string,address)":"876ab349","register(bytes[],string[],address[])":"b1a7e279","renounceRole(bytes32,address)":"36568abe","revokeRole(bytes32,address)":"d547741f","router()":"f887ea40","setAverageBlockTime(uint256)":"3736d853","setGatewayAddress(bytes,address)":"dacfab0d","setIsStrategyAllowed(address,bool,bool)":"017a02c3","setMana(uint256)":"0def8b8a","setMaxGatewaysPerCluster(uint256)":"3abcf38c","setMetadata(bytes,string)":"0fe9fb66","setMinStake(uint256)":"8c80fd90","stake(uint256,uint128)":"7acfc9e2","stake(uint256,uint128,bool)":"e3fa31ed","staked(address)":"98807d84","supportsInterface(bytes4)":"01ffc9a7","token()":"fc0c546a","unpause()":"3f4ba83a","unregister(bytes)":"27d6c032","unregister(bytes[])":"f586857a","unstake()":"2def6620","useStrategy(address)":"b8050a5d"},"id":79}