{
  "abi": [
    {
      "type": "constructor",
      "inputs": [],
      "stateMutability": "nonpayable"
    },
    {
      "type": "function",
      "name": "DEFAULT_ADMIN_ROLE",
      "inputs": [],
      "outputs": [
        {
          "name": "",
          "type": "bytes32",
          "internalType": "bytes32"
        }
      ],
      "stateMutability": "view"
    },
    {
      "type": "function",
      "name": "PAUSER_ROLE",
      "inputs": [],
      "outputs": [
        {
          "name": "",
          "type": "bytes32",
          "internalType": "bytes32"
        }
      ],
      "stateMutability": "view"
    },
    {
      "type": "function",
      "name": "addStake",
      "inputs": [
        {
          "name": "amount",
          "type": "uint256",
          "internalType": "uint256"
        }
      ],
      "outputs": [],
      "stateMutability": "nonpayable"
    },
    {
      "type": "function",
      "name": "allocateComputationUnits",
      "inputs": [
        {
          "name": "workerIds",
          "type": "uint256[]",
          "internalType": "uint256[]"
        },
        {
          "name": "cus",
          "type": "uint256[]",
          "internalType": "uint256[]"
        }
      ],
      "outputs": [],
      "stateMutability": "nonpayable"
    },
    {
      "type": "function",
      "name": "averageBlockTime",
      "inputs": [],
      "outputs": [
        {
          "name": "",
          "type": "uint256",
          "internalType": "uint256"
        }
      ],
      "stateMutability": "view"
    },
    {
      "type": "function",
      "name": "canUnstake",
      "inputs": [
        {
          "name": "operator",
          "type": "address",
          "internalType": "address"
        }
      ],
      "outputs": [
        {
          "name": "",
          "type": "bool",
          "internalType": "bool"
        }
      ],
      "stateMutability": "view"
    },
    {
      "type": "function",
      "name": "computationUnitsAmount",
      "inputs": [
        {
          "name": "amount",
          "type": "uint256",
          "internalType": "uint256"
        },
        {
          "name": "durationBlocks",
          "type": "uint256",
          "internalType": "uint256"
        }
      ],
      "outputs": [
        {
          "name": "",
          "type": "uint256",
          "internalType": "uint256"
        }
      ],
      "stateMutability": "view"
    },
    {
      "type": "function",
      "name": "computationUnitsAvailable",
      "inputs": [
        {
          "name": "peerId",
          "type": "bytes",
          "internalType": "bytes"
        }
      ],
      "outputs": [
        {
          "name": "",
          "type": "uint256",
          "internalType": "uint256"
        }
      ],
      "stateMutability": "view"
    },
    {
      "type": "function",
      "name": "defaultStrategy",
      "inputs": [],
      "outputs": [
        {
          "name": "",
          "type": "address",
          "internalType": "address"
        }
      ],
      "stateMutability": "view"
    },
    {
      "type": "function",
      "name": "disableAutoExtension",
      "inputs": [],
      "outputs": [],
      "stateMutability": "nonpayable"
    },
    {
      "type": "function",
      "name": "enableAutoExtension",
      "inputs": [],
      "outputs": [],
      "stateMutability": "nonpayable"
    },
    {
      "type": "function",
      "name": "gatewayByAddress",
      "inputs": [
        {
          "name": "",
          "type": "address",
          "internalType": "address"
        }
      ],
      "outputs": [
        {
          "name": "gatewayId",
          "type": "bytes32",
          "internalType": "bytes32"
        }
      ],
      "stateMutability": "view"
    },
    {
      "type": "function",
      "name": "getActiveGateways",
      "inputs": [
        {
          "name": "pageNumber",
          "type": "uint256",
          "internalType": "uint256"
        },
        {
          "name": "perPage",
          "type": "uint256",
          "internalType": "uint256"
        }
      ],
      "outputs": [
        {
          "name": "",
          "type": "bytes[]",
          "internalType": "bytes[]"
        }
      ],
      "stateMutability": "view"
    },
    {
      "type": "function",
      "name": "getActiveGatewaysCount",
      "inputs": [],
      "outputs": [
        {
          "name": "",
          "type": "uint256",
          "internalType": "uint256"
        }
      ],
      "stateMutability": "view"
    },
    {
      "type": "function",
      "name": "getCluster",
      "inputs": [
        {
          "name": "peerId",
          "type": "bytes",
          "internalType": "bytes"
        }
      ],
      "outputs": [
        {
          "name": "clusterPeerIds",
          "type": "bytes[]",
          "internalType": "bytes[]"
        }
      ],
      "stateMutability": "view"
    },
    {
      "type": "function",
      "name": "getGateway",
      "inputs": [
        {
          "name": "peerId",
          "type": "bytes",
          "internalType": "bytes"
        }
      ],
      "outputs": [
        {
          "name": "",
          "type": "tuple",
          "internalType": "struct IGatewayRegistry.Gateway",
          "components": [
            {
              "name": "operator",
              "type": "address",
              "internalType": "address"
            },
            {
              "name": "ownAddress",
              "type": "address",
              "internalType": "address"
            },
            {
              "name": "peerId",
              "type": "bytes",
              "internalType": "bytes"
            },
            {
              "name": "metadata",
              "type": "string",
              "internalType": "string"
            }
          ]
        }
      ],
      "stateMutability": "view"
    },
    {
      "type": "function",
      "name": "getMetadata",
      "inputs": [
        {
          "name": "peerId",
          "type": "bytes",
          "internalType": "bytes"
        }
      ],
      "outputs": [
        {
          "name": "",
          "type": "string",
          "internalType": "string"
        }
      ],
      "stateMutability": "view"
    },
    {
      "type": "function",
      "name": "getMyGateways",
      "inputs": [
        {
          "name": "operator",
          "type": "address",
          "internalType": "address"
        }
      ],
      "outputs": [
        {
          "name": "",
          "type": "bytes[]",
          "internalType": "bytes[]"
        }
      ],
      "stateMutability": "view"
    },
    {
      "type": "function",
      "name": "getRoleAdmin",
      "inputs": [
        {
          "name": "role",
          "type": "bytes32",
          "internalType": "bytes32"
        }
      ],
      "outputs": [
        {
          "name": "",
          "type": "bytes32",
          "internalType": "bytes32"
        }
      ],
      "stateMutability": "view"
    },
    {
      "type": "function",
      "name": "getStake",
      "inputs": [
        {
          "name": "operator",
          "type": "address",
          "internalType": "address"
        }
      ],
      "outputs": [
        {
          "name": "",
          "type": "tuple",
          "internalType": "struct IGatewayRegistry.Stake",
          "components": [
            {
              "name": "amount",
              "type": "uint256",
              "internalType": "uint256"
            },
            {
              "name": "lockStart",
              "type": "uint128",
              "internalType": "uint128"
            },
            {
              "name": "lockEnd",
              "type": "uint128",
              "internalType": "uint128"
            },
            {
              "name": "duration",
              "type": "uint128",
              "internalType": "uint128"
            },
            {
              "name": "autoExtension",
              "type": "bool",
              "internalType": "bool"
            },
            {
              "name": "oldCUs",
              "type": "uint256",
              "internalType": "uint256"
            }
          ]
        }
      ],
      "stateMutability": "view"
    },
    {
      "type": "function",
      "name": "getUsedStrategy",
      "inputs": [
        {
          "name": "peerId",
          "type": "bytes",
          "internalType": "bytes"
        }
      ],
      "outputs": [
        {
          "name": "",
          "type": "address",
          "internalType": "address"
        }
      ],
      "stateMutability": "view"
    },
    {
      "type": "function",
      "name": "grantRole",
      "inputs": [
        {
          "name": "role",
          "type": "bytes32",
          "internalType": "bytes32"
        },
        {
          "name": "account",
          "type": "address",
          "internalType": "address"
        }
      ],
      "outputs": [],
      "stateMutability": "nonpayable"
    },
    {
      "type": "function",
      "name": "hasRole",
      "inputs": [
        {
          "name": "role",
          "type": "bytes32",
          "internalType": "bytes32"
        },
        {
          "name": "account",
          "type": "address",
          "internalType": "address"
        }
      ],
      "outputs": [
        {
          "name": "",
          "type": "bool",
          "internalType": "bool"
        }
      ],
      "stateMutability": "view"
    },
    {
      "type": "function",
      "name": "initialize",
      "inputs": [
        {
          "name": "_token",
          "type": "address",
          "internalType": "contract IERC20WithMetadata"
        },
        {
          "name": "_router",
          "type": "address",
          "internalType": "contract IRouter"
        }
      ],
      "outputs": [],
      "stateMutability": "nonpayable"
    },
    {
      "type": "function",
      "name": "isStrategyAllowed",
      "inputs": [
        {
          "name": "strategy",
          "type": "address",
          "internalType": "address"
        }
      ],
      "outputs": [
        {
          "name": "",
          "type": "bool",
          "internalType": "bool"
        }
      ],
      "stateMutability": "view"
    },
    {
      "type": "function",
      "name": "mana",
      "inputs": [],
      "outputs": [
        {
          "name": "",
          "type": "uint256",
          "internalType": "uint256"
        }
      ],
      "stateMutability": "view"
    },
    {
      "type": "function",
      "name": "maxGatewaysPerCluster",
      "inputs": [],
      "outputs": [
        {
          "name": "",
          "type": "uint256",
          "internalType": "uint256"
        }
      ],
      "stateMutability": "view"
    },
    {
      "type": "function",
      "name": "pause",
      "inputs": [],
      "outputs": [],
      "stateMutability": "nonpayable"
    },
    {
      "type": "function",
      "name": "paused",
      "inputs": [],
      "outputs": [
        {
          "name": "",
          "type": "bool",
          "internalType": "bool"
        }
      ],
      "stateMutability": "view"
    },
    {
      "type": "function",
      "name": "register",
      "inputs": [
        {
          "name": "peerId",
          "type": "bytes",
          "internalType": "bytes"
        }
      ],
      "outputs": [],
      "stateMutability": "nonpayable"
    },
    {
      "type": "function",
      "name": "register",
      "inputs": [
        {
          "name": "peerId",
          "type": "bytes",
          "internalType": "bytes"
        },
        {
          "name": "metadata",
          "type": "string",
          "internalType": "string"
        },
        {
          "name": "gatewayAddress",
          "type": "address",
          "internalType": "address"
        }
      ],
      "outputs": [],
      "stateMutability": "nonpayable"
    },
    {
      "type": "function",
      "name": "register",
      "inputs": [
        {
          "name": "peerId",
          "type": "bytes",
          "internalType": "bytes"
        },
        {
          "name": "metadata",
          "type": "string",
          "internalType": "string"
        }
      ],
      "outputs": [],
      "stateMutability": "nonpayable"
    },
    {
      "type": "function",
      "name": "register",
      "inputs": [
        {
          "name": "peerId",
          "type": "bytes[]",
          "internalType": "bytes[]"
        },
        {
          "name": "metadata",
          "type": "string[]",
          "internalType": "string[]"
        },
        {
          "name": "gatewayAddress",
          "type": "address[]",
          "internalType": "address[]"
        }
      ],
      "outputs": [],
      "stateMutability": "nonpayable"
    },
    {
      "type": "function",
      "name": "renounceRole",
      "inputs": [
        {
          "name": "role",
          "type": "bytes32",
          "internalType": "bytes32"
        },
        {
          "name": "callerConfirmation",
          "type": "address",
          "internalType": "address"
        }
      ],
      "outputs": [],
      "stateMutability": "nonpayable"
    },
    {
      "type": "function",
      "name": "revokeRole",
      "inputs": [
        {
          "name": "role",
          "type": "bytes32",
          "internalType": "bytes32"
        },
        {
          "name": "account",
          "type": "address",
          "internalType": "address"
        }
      ],
      "outputs": [],
      "stateMutability": "nonpayable"
    },
    {
      "type": "function",
      "name": "router",
      "inputs": [],
      "outputs": [
        {
          "name": "",
          "type": "address",
          "internalType": "contract IRouter"
        }
      ],
      "stateMutability": "view"
    },
    {
      "type": "function",
      "name": "setAverageBlockTime",
      "inputs": [
        {
          "name": "_newAverageBlockTime",
          "type": "uint256",
          "internalType": "uint256"
        }
      ],
      "outputs": [],
      "stateMutability": "nonpayable"
    },
    {
      "type": "function",
      "name": "setGatewayAddress",
      "inputs": [
        {
          "name": "peerId",
          "type": "bytes",
          "internalType": "bytes"
        },
        {
          "name": "newAddress",
          "type": "address",
          "internalType": "address"
        }
      ],
      "outputs": [],
      "stateMutability": "nonpayable"
    },
    {
      "type": "function",
      "name": "setIsStrategyAllowed",
      "inputs": [
        {
          "name": "strategy",
          "type": "address",
          "internalType": "address"
        },
        {
          "name": "isAllowed",
          "type": "bool",
          "internalType": "bool"
        },
        {
          "name": "isDefault",
          "type": "bool",
          "internalType": "bool"
        }
      ],
      "outputs": [],
      "stateMutability": "nonpayable"
    },
    {
      "type": "function",
      "name": "setMana",
      "inputs": [
        {
          "name": "_newMana",
          "type": "uint256",
          "internalType": "uint256"
        }
      ],
      "outputs": [],
      "stateMutability": "nonpayable"
    },
    {
      "type": "function",
      "name": "setMaxGatewaysPerCluster",
      "inputs": [
        {
          "name": "_maxGatewaysPerCluster",
          "type": "uint256",
          "internalType": "uint256"
        }
      ],
      "outputs": [],
      "stateMutability": "nonpayable"
    },
    {
      "type": "function",
      "name": "setMetadata",
      "inputs": [
        {
          "name": "peerId",
          "type": "bytes",
          "internalType": "bytes"
        },
        {
          "name": "metadata",
          "type": "string",
          "internalType": "string"
        }
      ],
      "outputs": [],
      "stateMutability": "nonpayable"
    },
    {
      "type": "function",
      "name": "stake",
      "inputs": [
        {
          "name": "amount",
          "type": "uint256",
          "internalType": "uint256"
        },
        {
          "name": "durationBlocks",
          "type": "uint128",
          "internalType": "uint128"
        }
      ],
      "outputs": [],
      "stateMutability": "nonpayable"
    },
    {
      "type": "function",
      "name": "stake",
      "inputs": [
        {
          "name": "amount",
          "type": "uint256",
          "internalType": "uint256"
        },
        {
          "name": "durationBlocks",
          "type": "uint128",
          "internalType": "uint128"
        },
        {
          "name": "withAutoExtension",
          "type": "bool",
          "internalType": "bool"
        }
      ],
      "outputs": [],
      "stateMutability": "nonpayable"
    },
    {
      "type": "function",
      "name": "staked",
      "inputs": [
        {
          "name": "operator",
          "type": "address",
          "internalType": "address"
        }
      ],
      "outputs": [
        {
          "name": "",
          "type": "uint256",
          "internalType": "uint256"
        }
      ],
      "stateMutability": "view"
    },
    {
      "type": "function",
      "name": "supportsInterface",
      "inputs": [
        {
          "name": "interfaceId",
          "type": "bytes4",
          "internalType": "bytes4"
        }
      ],
      "outputs": [
        {
          "name": "",
          "type": "bool",
          "internalType": "bool"
        }
      ],
      "stateMutability": "view"
    },
    {
      "type": "function",
      "name": "testAbi",
      "inputs": [
        {
          "name": "a",
          "type": "uint256[][3]",
          "internalType": "uint256[][3]"
        },
        {
          "name": "b",
          "type": "tuple[3]",
          "internalType": "struct IGatewayRegistry.Gateway[3]",
          "components": [
            {
              "name": "operator",
              "type": "address",
              "internalType": "address"
            },
            {
              "name": "ownAddress",
              "type": "address",
              "internalType": "address"
            },
            {
              "name": "peerId",
              "type": "bytes",
              "internalType": "bytes"
            },
            {
              "name": "metadata",
              "type": "string",
              "internalType": "string"
            }
          ]
        },
        {
          "name": "c",
          "type": "tuple[]",
          "internalType": "struct IGatewayRegistry.Gateway[]",
          "components": [
            {
              "name": "operator",
              "type": "address",
              "internalType": "address"
            },
            {
              "name": "ownAddress",
              "type": "address",
              "internalType": "address"
            },
            {
              "name": "peerId",
              "type": "bytes",
              "internalType": "bytes"
            },
            {
              "name": "metadata",
              "type": "string",
              "internalType": "string"
            }
          ]
        },
        {
          "name": "d",
          "type": "tuple",
          "internalType": "struct IGatewayRegistry.Gateway",
          "components": [
            {
              "name": "operator",
              "type": "address",
              "internalType": "address"
            },
            {
              "name": "ownAddress",
              "type": "address",
              "internalType": "address"
            },
            {
              "name": "peerId",
              "type": "bytes",
              "internalType": "bytes"
            },
            {
              "name": "metadata",
              "type": "string",
              "internalType": "string"
            }
          ]
        }
      ],
      "outputs": [
        {
          "name": "ra",
          "type": "uint256",
          "internalType": "uint256"
        },
        {
          "name": "rb",
          "type": "string",
          "internalType": "string"
        },
        {
          "name": "rc",
          "type": "tuple",
          "internalType": "struct IGatewayRegistry.Gateway",
          "components": [
            {
              "name": "operator",
              "type": "address",
              "internalType": "address"
            },
            {
              "name": "ownAddress",
              "type": "address",
              "internalType": "address"
            },
            {
              "name": "peerId",
              "type": "bytes",
              "internalType": "bytes"
            },
            {
              "name": "metadata",
              "type": "string",
              "internalType": "string"
            }
          ]
        }
      ],
      "stateMutability": "view"
    },
    {
      "type": "function",
      "name": "token",
      "inputs": [],
      "outputs": [
        {
          "name": "",
          "type": "address",
          "internalType": "contract IERC20WithMetadata"
        }
      ],
      "stateMutability": "view"
    },
    {
      "type": "function",
      "name": "unpause",
      "inputs": [],
      "outputs": [],
      "stateMutability": "nonpayable"
    },
    {
      "type": "function",
      "name": "unregister",
      "inputs": [
        {
          "name": "peerId",
          "type": "bytes",
          "internalType": "bytes"
        }
      ],
      "outputs": [],
      "stateMutability": "nonpayable"
    },
    {
      "type": "function",
      "name": "unregister",
      "inputs": [
        {
          "name": "peerId",
          "type": "bytes[]",
          "internalType": "bytes[]"
        }
      ],
      "outputs": [],
      "stateMutability": "nonpayable"
    },
    {
      "type": "function",
      "name": "unstake",
      "inputs": [],
      "outputs": [],
      "stateMutability": "nonpayable"
    },
    {
      "type": "function",
      "name": "useStrategy",
      "inputs": [
        {
          "name": "strategy",
          "type": "address",
          "internalType": "address"
        }
      ],
      "outputs": [],
      "stateMutability": "nonpayable"
    },
    {
      "type": "event",
      "name": "AllocatedCUs",
      "inputs": [
        {
          "name": "gateway",
          "type": "address",
          "indexed": true,
          "internalType": "address"
        },
        {
          "name": "peerId",
          "type": "bytes",
          "indexed": false,
          "internalType": "bytes"
        },
        {
          "name": "workerIds",
          "type": "uint256[]",
          "indexed": false,
          "internalType": "uint256[]"
        },
        {
          "name": "shares",
          "type": "uint256[]",
          "indexed": false,
          "internalType": "uint256[]"
        }
      ],
      "anonymous": false
    },
    {
      "type": "event",
      "name": "AutoextensionDisabled",
      "inputs": [
        {
          "name": "gatewayOperator",
          "type": "address",
          "indexed": true,
          "internalType": "address"
        },
        {
          "name": "lockEnd",
          "type": "uint128",
          "indexed": false,
          "internalType": "uint128"
        }
      ],
      "anonymous": false
    },
    {
      "type": "event",
      "name": "AutoextensionEnabled",
      "inputs": [
        {
          "name": "gatewayOperator",
          "type": "address",
          "indexed": true,
          "internalType": "address"
        }
      ],
      "anonymous": false
    },
    {
      "type": "event",
      "name": "AverageBlockTimeChanged",
      "inputs": [
        {
          "name": "newBlockTime",
          "type": "uint256",
          "indexed": false,
          "internalType": "uint256"
        }
      ],
      "anonymous": false
    },
    {
      "type": "event",
      "name": "DefaultStrategyChanged",
      "inputs": [
        {
          "name": "strategy",
          "type": "address",
          "indexed": true,
          "internalType": "address"
        }
      ],
      "anonymous": false
    },
    {
      "type": "event",
      "name": "GatewayAddressChanged",
      "inputs": [
        {
          "name": "gatewayOperator",
          "type": "address",
          "indexed": true,
          "internalType": "address"
        },
        {
          "name": "peerId",
          "type": "bytes",
          "indexed": false,
          "internalType": "bytes"
        },
        {
          "name": "newAddress",
          "type": "address",
          "indexed": false,
          "internalType": "address"
        }
      ],
      "anonymous": false
    },
    {
      "type": "event",
      "name": "Initialized",
      "inputs": [
        {
          "name": "version",
          "type": "uint64",
          "indexed": false,
          "internalType": "uint64"
        }
      ],
      "anonymous": false
    },
    {
      "type": "event",
      "name": "ManaChanged",
      "inputs": [
        {
          "name": "newCuPerSQD",
          "type": "uint256",
          "indexed": false,
          "internalType": "uint256"
        }
      ],
      "anonymous": false
    },
    {
      "type": "event",
      "name": "MaxGatewaysPerClusterChanged",
      "inputs": [
        {
          "name": "newAmount",
          "type": "uint256",
          "indexed": false,
          "internalType": "uint256"
        }
      ],
      "anonymous": false
    },
    {
      "type": "event",
      "name": "MetadataChanged",
      "inputs": [
        {
          "name": "gatewayOperator",
          "type": "address",
          "indexed": true,
          "internalType": "address"
        },
        {
          "name": "peerId",
          "type": "bytes",
          "indexed": false,
          "internalType": "bytes"
        },
        {
          "name": "metadata",
          "type": "string",
          "indexed": false,
          "internalType": "string"
        }
      ],
      "anonymous": false
    },
    {
      "type": "event",
      "name": "Paused",
      "inputs": [
        {
          "name": "account",
          "type": "address",
          "indexed": false,
          "internalType": "address"
        }
      ],
      "anonymous": false
    },
    {
      "type": "event",
      "name": "Registered",
      "inputs": [
        {
          "name": "gatewayOperator",
          "type": "address",
          "indexed": true,
          "internalType": "address"
        },
        {
          "name": "id",
          "type": "bytes32",
          "indexed": true,
          "internalType": "bytes32"
        },
        {
          "name": "peerId",
          "type": "bytes",
          "indexed": false,
          "internalType": "bytes"
        }
      ],
      "anonymous": false
    },
    {
      "type": "event",
      "name": "RoleAdminChanged",
      "inputs": [
        {
          "name": "role",
          "type": "bytes32",
          "indexed": true,
          "internalType": "bytes32"
        },
        {
          "name": "previousAdminRole",
          "type": "bytes32",
          "indexed": true,
          "internalType": "bytes32"
        },
        {
          "name": "newAdminRole",
          "type": "bytes32",
          "indexed": true,
          "internalType": "bytes32"
        }
      ],
      "anonymous": false
    },
    {
      "type": "event",
      "name": "RoleGranted",
      "inputs": [
        {
          "name": "role",
          "type": "bytes32",
          "indexed": true,
          "internalType": "bytes32"
        },
        {
          "name": "account",
          "type": "address",
          "indexed": true,
          "internalType": "address"
        },
        {
          "name": "sender",
          "type": "address",
          "indexed": true,
          "internalType": "address"
        }
      ],
      "anonymous": false
    },
    {
      "type": "event",
      "name": "RoleRevoked",
      "inputs": [
        {
          "name": "role",
          "type": "bytes32",
          "indexed": true,
          "internalType": "bytes32"
        },
        {
          "name": "account",
          "type": "address",
          "indexed": true,
          "internalType": "address"
        },
        {
          "name": "sender",
          "type": "address",
          "indexed": true,
          "internalType": "address"
        }
      ],
      "anonymous": false
    },
    {
      "type": "event",
      "name": "Staked",
      "inputs": [
        {
          "name": "gatewayOperator",
          "type": "address",
          "indexed": true,
          "internalType": "address"
        },
        {
          "name": "amount",
          "type": "uint256",
          "indexed": false,
          "internalType": "uint256"
        },
        {
          "name": "lockStart",
          "type": "uint128",
          "indexed": false,
          "internalType": "uint128"
        },
        {
          "name": "lockEnd",
          "type": "uint128",
          "indexed": false,
          "internalType": "uint128"
        },
        {
          "name": "computationUnits",
          "type": "uint256",
          "indexed": false,
          "internalType": "uint256"
        }
      ],
      "anonymous": false
    },
    {
      "type": "event",
      "name": "StrategyAllowed",
      "inputs": [
        {
          "name": "strategy",
          "type": "address",
          "indexed": true,
          "internalType": "address"
        },
        {
          "name": "isAllowed",
          "type": "bool",
          "indexed": false,
          "internalType": "bool"
        }
      ],
      "anonymous": false
    },
    {
      "type": "event",
      "name": "Unpaused",
      "inputs": [
        {
          "name": "account",
          "type": "address",
          "indexed": false,
          "internalType": "address"
        }
      ],
      "anonymous": false
    },
    {
      "type": "event",
      "name": "Unregistered",
      "inputs": [
        {
          "name": "gatewayOperator",
          "type": "address",
          "indexed": true,
          "internalType": "address"
        },
        {
          "name": "peerId",
          "type": "bytes",
          "indexed": false,
          "internalType": "bytes"
        }
      ],
      "anonymous": false
    },
    {
      "type": "event",
      "name": "Unstaked",
      "inputs": [
        {
          "name": "gatewayOperator",
          "type": "address",
          "indexed": true,
          "internalType": "address"
        },
        {
          "name": "amount",
          "type": "uint256",
          "indexed": false,
          "internalType": "uint256"
        }
      ],
      "anonymous": false
    },
    {
      "type": "event",
      "name": "UsedStrategyChanged",
      "inputs": [
        {
          "name": "gatewayOperator",
          "type": "address",
          "indexed": true,
          "internalType": "address"
        },
        {
          "name": "strategy",
          "type": "address",
          "indexed": false,
          "internalType": "address"
        }
      ],
      "anonymous": false
    },
    {
      "type": "error",
      "name": "AccessControlBadConfirmation",
      "inputs": []
    },
    {
      "type": "error",
      "name": "AccessControlUnauthorizedAccount",
      "inputs": [
        {
          "name": "account",
          "type": "address",
          "internalType": "address"
        },
        {
          "name": "neededRole",
          "type": "bytes32",
          "internalType": "bytes32"
        }
      ]
    },
    {
      "type": "error",
      "name": "EnforcedPause",
      "inputs": []
    },
    {
      "type": "error",
      "name": "ExpectedPause",
      "inputs": []
    },
    {
      "type": "error",
      "name": "InvalidInitialization",
      "inputs": []
    },
    {
      "type": "error",
      "name": "NotInitializing",
      "inputs": []
    }
  ],
  "bytecode": {
    "object": "0x60806040523480156200001157600080fd5b506200001c62000022565b620000d6565b7ff0c57e16840df040f15088dc2f81fe391c3923bec73e23a9662efc9c229c6a00805468010000000000000000900460ff1615620000735760405163f92ee8a960e01b815260040160405180910390fd5b80546001600160401b0390811614620000d35780546001600160401b0319166001600160401b0390811782556040519081527fc7f505b2f371ae2175ee4913f4499e1f2633a7b5936321eed1cdaeb6115181d29060200160405180910390a15b50565b61445880620000e66000396000f3fe608060405234801561001057600080fd5b50600436106103275760003560e01c806382fbdc9c116101b8578063bc9c0e6211610104578063e63ab1e9116100a2578063f586857a1161007c578063f586857a1461084c578063f887ea401461085f578063fac5bb9b14610872578063fc0c546a1461088557600080fd5b8063e63ab1e91461081c578063e6c7f21b14610831578063eb4f16b51461083957600080fd5b8063d87113e5116100de578063d87113e5146107ce578063dacfab0d146107d6578063dcefedaf146107e9578063e3fa31ed1461080957600080fd5b8063bc9c0e62146107a9578063bdb001a7146107b2578063d547741f146107bb57600080fd5b806394f3c72511610171578063b1a7e2791161014b578063b1a7e2791461074e578063b785a2e614610761578063b8050a5d14610774578063bb952d4e1461078757600080fd5b806394f3c725146106ef57806398807d841461071a578063a217fddf1461074657600080fd5b806382fbdc9c1461065b5780638456cb591461066e57806385f4498b14610676578063876ab349146106b657806391d14854146106c957806392255fbf146106dc57600080fd5b806336568abe11610277578063485cc9551161023057806367c1def91161020a57806367c1def9146104eb57806375734be81461050e5780637a7664601461052e5780637acfc9e21461064857600080fd5b8063485cc955146104ad578063585a6a6d146104c05780635c975abb146104d357600080fd5b806336568abe146104395780633736d8531461044c5780633abcf38c1461045f5780633f4ba83a14610472578063429773fb1461047a57806344d4bea81461049a57600080fd5b80631c0fa1c8116102e457806327d6c032116102be57806327d6c032146103f85780632c17a07f1461040b5780632def66201461041e5780632f2ff15d1461042657600080fd5b80631c0fa1c8146103bb578063233dedf1146103dc578063248a9ca3146103e557600080fd5b8063017a02c31461032c57806301a993561461034157806301ffc9a71461036a5780630def8b8a1461038d5780630fe9fb66146103a057806313f117f2146103b3575b600080fd5b61033f61033a366004613563565b610898565b005b61035461034f3660046135ae565b6109e6565b6040516103619190613616565b60405180910390f35b61037d610378366004613678565b610bc0565b6040519015158152602001610361565b61033f61039b3660046136a2565b610bf5565b61033f6103ae3660046136fc565b610c3d565b61033f610cb3565b6103ce6103c93660046135ae565b610d7c565b604051908152602001610361565b6103ce600a5481565b6103ce6103f33660046136a2565b610ebe565b61033f610406366004613767565b610ee0565b6103546104193660046137a8565b611020565b61033f611197565b61033f6104343660046137c5565b6113a8565b61033f6104473660046137c5565b6113ca565b61033f61045a3660046136a2565b611402565b61033f61046d3660046136a2565b611442565b61033f611482565b6103ce6104883660046137a8565b60046020526000908152604090205481565b6103ce6104a8366004613767565b6114a5565b61033f6104bb3660046137f5565b6116b2565b6103546104ce366004613767565b61189f565b6000805160206144038339815191525460ff1661037d565b61037d6104f93660046137a8565b60076020526000908152604090205460ff1681565b61052161051c366004613767565b611a25565b6040516103619190613823565b6105e961053c3660046137a8565b6040805160c081018252600080825260208201819052918101829052606081018290526080810182905260a0810191909152506001600160a01b0316600090815260036020818152604092839020835160c0810185526001820154815260028201546001600160801b0380821694830194909452600160801b9081900484169582019590955292810154918216606084015292900460ff161515608082015260049091015460a082015290565b6040516103619190600060c0820190508251825260208301516001600160801b038082166020850152806040860151166040850152806060860151166060850152505060808301511515608083015260a083015160a083015292915050565b61033f61065636600461384b565b611ae5565b61033f610669366004613767565b611af5565b61033f611b11565b61037d6106843660046137a8565b6001600160a01b031660009081526003602052604090206002015443600160801b9091046001600160801b0316111590565b61033f6106c4366004613886565b611b31565b61037d6106d73660046137c5565b611e51565b61033f6106ea3660046136fc565b611e89565b6107026106fd366004613767565b611eca565b6040516001600160a01b039091168152602001610361565b6103ce6107283660046137a8565b6001600160a01b031660009081526003602052604090206001015490565b6103ce600081565b61033f61075c3660046139b5565b611f01565b61033f61076f366004613a4e565b612005565b61033f6107823660046137a8565b612261565b61079a610795366004613abe565b61233f565b60405161036193929190613bce565b6103ce600c5481565b6103ce600b5481565b61033f6107c93660046137c5565b612377565b6103ce612393565b61033f6107e4366004613c03565b6123a4565b6107fc6107f7366004613767565b6124de565b6040516103619190613c4e565b61033f610817366004613c61565b612685565b6103ce6000805160206143c383398151915281565b61033f612a4b565b61033f6108473660046136a2565b612b73565b61033f61085a366004613c88565b612ed4565b600154610702906001600160a01b031681565b600854610702906001600160a01b031681565b600054610702906001600160a01b031681565b60006108a381612f18565b821580156108c5575081806108c557506008546001600160a01b038581169116145b156109295760405162461bcd60e51b815260206004820152602960248201527f43616e6e6f742073657420646973616c6c6f77656420737472617465677920616044820152681cc8191959985d5b1d60ba1b60648201526084015b60405180910390fd5b6001600160a01b0384166000908152600760205260409020805460ff1916841515179055811561099b57600880546001600160a01b0319166001600160a01b0386169081179091556040517f84e184ce3e506721b995db9e77ad7527e97c83dd04bf98f5830508602bf837ad90600090a25b836001600160a01b03167f4e8e4980b101f6a8ebe870c7cf3767fb92422ef0c95a65b5cd750f9fce3c26e0846040516109d8911515815260200190565b60405180910390a250505050565b606060006109f46005612f22565b90506000610a028585613cd3565b90508151811115610a42576040805160008082526020820190925290610a38565b6060815260200190600190039081610a235790505b5092505050610bba565b6000610a4e8583613cea565b90508251811115610a5d575081515b6000610a698383613cfd565b6001600160401b03811115610a8057610a80613870565b604051908082528060200260200182016040528015610ab357816020015b6060815260200190600190039081610a9e5790505b509050825b82811015610bb35760026000868381518110610ad657610ad6613d10565b602002602001015181526020019081526020016000206002018054610afa90613d26565b80601f0160208091040260200160405190810160405280929190818152602001828054610b2690613d26565b8015610b735780601f10610b4857610100808354040283529160200191610b73565b820191906000526020600020905b815481529060010190602001808311610b5657829003601f168201915b5050505050828583610b859190613cfd565b81518110610b9557610b95613d10565b60200260200101819052508080610bab90613d60565b915050610ab8565b5093505050505b92915050565b60006001600160e01b03198216637965db0b60e01b1480610bba57506301ffc9a760e01b6001600160e01b0319831614610bba565b6000610c0081612f18565b600b8290556040518281527fd48c454cdec818a86733db9fd6353a7b80d423e6a189ecac47703f9b5fa0801b906020015b60405180910390a15050565b6000610c498585612f2f565b509050610c5581612fb8565b60038101610c64838583613dc7565b50336001600160a01b03167f512a85d60acb1212e9e49cec8fc20daed3ed43977be6a8db77faf2c859e79e7f86868686604051610ca49493929190613eaf565b60405180910390a25050505050565b33600090815260036020819052604090912090810154600190910190600160801b900460ff1615610d1e5760405162461bcd60e51b8152602060048201526015602482015274105d5d1bd15e1d195b9cda5bdb88195b98589b1959605a1b6044820152606401610920565b60028101805460ff60801b1916600160801b1790556001810180546001600160801b03166001600160801b031917905560405133907feff5f78e20f1cd92a537c3cdbaeaea11ad293aace5d7262ed93f2f33b42a828f90600090a250565b6000600954612710610d8e9190613cd3565b610d9a906103e8613cd3565b600160009054906101000a90046001600160a01b03166001600160a01b0316638f0b335e6040518163ffffffff1660e01b8152600401602060405180830381865afa158015610ded573d6000803e3d6000fd5b505050506040513d601f19601f82011682018060405250810190610e119190613ee1565b6001600160a01b031663e9c85672600a5485610e2d9190613cd3565b6040518263ffffffff1660e01b8152600401610e4b91815260200190565b602060405180830381865afa158015610e68573d6000803e3d6000fd5b505050506040513d601f19601f82011682018060405250810190610e8c9190613efe565b600b54610e998587613cd3565b610ea39190613cd3565b610ead9190613cd3565b610eb79190613f2d565b9392505050565b60009081526000805160206143e3833981519152602052604090206001015490565b610ee861301d565b600080610ef58484612f2f565b91509150610f0282612fb8565b336000908152600360205260409020610f1e9060050182613050565b610f745760405162461bcd60e51b815260206004820152602160248201527f47617465776179206e6f742072656d6f7665642066726f6d206f70657261746f6044820152603960f91b6064820152608401610920565b610f7f600582613050565b506001808301546001600160a01b03166000908152600460209081526040808320839055848352600291829052822080546001600160a01b031990811682559381018054909416909355610fd5908301826134e2565b610fe36003830160006134e2565b5050336001600160a01b03167fa133cd95a0c9cb4f8272f86cd3bb48ba2bf54f982e60bba1618e1286925eddec85856040516109d8929190613f41565b6001600160a01b03811660009081526003602052604081206060919061104890600501612f22565b9050600081516001600160401b0381111561106557611065613870565b60405190808252806020026020018201604052801561109857816020015b60608152602001906001900390816110835790505b50905060005b825181101561118f57600260008483815181106110bd576110bd613d10565b6020026020010151815260200190815260200160002060020180546110e190613d26565b80601f016020809104026020016040519081016040528092919081815260200182805461110d90613d26565b801561115a5780601f1061112f5761010080835404028352916020019161115a565b820191906000526020600020905b81548152906001019060200180831161113d57829003601f168201915b505050505082828151811061117157611171613d10565b6020026020010181905250808061118790613d60565b91505061109e565b509392505050565b61119f61301d565b3360009081526003602052604090206002015443600160801b9091046001600160801b031611156112045760405162461bcd60e51b815260206004820152600f60248201526e14dd185ad9481a5cc81b1bd8dad959608a1b6044820152606401610920565b33600090815260036020526040902060010154806112595760405162461bcd60e51b81526020600482015260126024820152714e6f7468696e6720746f20756e7374616b6560701b6044820152606401610920565b33600090815260036020526040812061127490600501612f22565b905060005b81518110156112c2576112af82828151811061129757611297613d10565b6020026020010151600561305090919063ffffffff16565b50806112ba81613d60565b915050611279565b50336000818152600360208190526040808320600181018490556002810184905591820180546001600160881b031916905560049182018390559154915163a9059cbb60e01b815290810192909252602482018490526001600160a01b03169063a9059cbb906044016020604051808303816000875af115801561134a573d6000803e3d6000fd5b505050506040513d601f19601f8201168201806040525081019061136e9190613f5d565b5060405182815233907f0f5bb82176feb1b5e747e28471aa92156a04d9f3ab9f45f28e2d704232b93f759060200160405180910390a25050565b6113b182610ebe565b6113ba81612f18565b6113c4838361305c565b50505050565b6001600160a01b03811633146113f35760405163334bd91960e11b815260040160405180910390fd5b6113fd8282613108565b505050565b600061140d81612f18565b600a8290556040518281527f46a9c997a4d81c1f992b7ec20e34dfc97c0c67a86dc24f9ff1525718690bead390602001610c31565b600061144d81612f18565b600c8290556040518281527ff092d674fd06aab53c483be96eb202422ad493b452660e05adfe7f02aca08c1f90602001610c31565b6000805160206143c383398151915261149a81612f18565b6114a2613184565b50565b6000806114b28484612f2f565b5080546001600160a01b0316600090815260036020818152604092839020835160c0810185526001820154815260028201546001600160801b0380821694830194909452600160801b9081900484169582018690529382015492831660608201529290910460ff16151560808301526004015460a0820152919250439081106115415760009350505050610bba565b60008183602001516001600160801b03161161157757611572836000015184606001516001600160801b0316610d7c565b61157d565b8260a001515b90506000600160009054906101000a90046001600160a01b03166001600160a01b031663853b97c26040518163ffffffff1660e01b8152600401602060405180830381865afa1580156115d4573d6000803e3d6000fd5b505050506040513d601f19601f820116820180604052508101906115f89190613ee1565b6001600160a01b03166357d775f86040518163ffffffff1660e01b8152600401602060405180830381865afa158015611635573d6000803e3d6000fd5b505050506040513d601f19601f820116820180604052508101906116599190613f7a565b6001600160801b031690508084606001516001600160801b03161161168457509350610bba92505050565b60608401516001600160801b031661169c8284613cd3565b6116a69190613f2d565b98975050505050505050565b7ff0c57e16840df040f15088dc2f81fe391c3923bec73e23a9662efc9c229c6a008054600160401b810460ff1615906001600160401b03166000811580156116f75750825b90506000826001600160401b031660011480156117135750303b155b905081158015611721575080155b1561173f5760405163f92ee8a960e01b815260040160405180910390fd5b845467ffffffffffffffff19166001178555831561176957845460ff60401b1916600160401b1785555b6117716131e4565b600080546001600160a01b03808a166001600160a01b0319928316811790935560018054918a16919092161790556040805163313ce56760e01b8152905163313ce567916004808201926020929091908290030181865afa1580156117da573d6000803e3d6000fd5b505050506040513d601f19601f820116820180604052508101906117fe9190613f97565b61180990600a61409e565b6009556000805260076020527f6d5257204ebe7d88fd91ae87941cb2dd9d8062b64ae5a2bd2d28ec40b9fbf6df805460ff19166001179055600c600a8181556103e8600b559055831561189657845460ff60401b19168555604051600181527fc7f505b2f371ae2175ee4913f4499e1f2633a7b5936321eed1cdaeb6115181d29060200160405180910390a15b50505050505050565b606060006118ad8484612f2f565b5080546001600160a01b03166000908152600360205260408120919250906118d790600501612f22565b905080516001600160401b038111156118f2576118f2613870565b60405190808252806020026020018201604052801561192557816020015b60608152602001906001900390816119105790505b50925060005b8151811015611a1c576002600083838151811061194a5761194a613d10565b60200260200101518152602001908152602001600020600201805461196e90613d26565b80601f016020809104026020016040519081016040528092919081815260200182805461199a90613d26565b80156119e75780601f106119bc576101008083540402835291602001916119e7565b820191906000526020600020905b8154815290600101906020018083116119ca57829003601f168201915b50505050508482815181106119fe576119fe613d10565b60200260200101819052508080611a1490613d60565b91505061192b565b50505092915050565b6060600260008484604051611a3b9291906140ad565b604051809103902081526020019081526020016000206003018054611a5f90613d26565b80601f0160208091040260200160405190810160405280929190818152602001828054611a8b90613d26565b8015611ad85780601f10611aad57610100808354040283529160200191611ad8565b820191906000526020600020905b815481529060010190602001808311611abb57829003601f168201915b5050505050905092915050565b611af182826000612685565b5050565b611af18282604051806020016040528060008152506000611b31565b6000805160206143c3833981519152611b2981612f18565b6114a2613210565b611b3961301d565b82611b865760405162461bcd60e51b815260206004820152601760248201527f43616e6e6f742073657420656d707479207065657249640000000000000000006044820152606401610920565b60008484604051611b989291906140ad565b60408051918290039091206000818152600260205291909120549091506001600160a01b031615611c0b5760405162461bcd60e51b815260206004820152601960248201527f50656572496420616c72656164792072656769737465726564000000000000006044820152606401610920565b600c54336000908152600360205260409020611c2990600501613259565b10611c765760405162461bcd60e51b815260206004820181905260248201527f546f6f206d616e7920676174657761797320696e2074686520636c75737465726044820152606401610920565b3360009081526003602052604090205460ff16611ca257600854611ca2906001600160a01b0316612261565b6040518060800160405280336001600160a01b03168152602001836001600160a01b0316815260200186868080601f016020809104026020016040519081016040528093929190818152602001838380828437600092018290525093855250505060209182018690528381526002808352604091829020845181546001600160a01b03199081166001600160a01b03928316178355948601516001830180549096169116179093559083015190820190611d5c90826140bd565b5060608201516003820190611d7190826140bd565b5050336000908152600360205260409020611d90915060050182613263565b503360009081526003602052604090206001015415611db657611db4600582613263565b505b80336001600160a01b03167fb9c7babb56df9f2da4a30811a6c778e4e68af88b72712d56cf62c5516e20e1998787604051611df2929190613f41565b60405180910390a3336001600160a01b03167f512a85d60acb1212e9e49cec8fc20daed3ed43977be6a8db77faf2c859e79e7f868686604051611e379392919061417c565b60405180910390a2611e4a8585846123a4565b5050505050565b60009182526000805160206143e3833981519152602090815260408084206001600160a01b0393909316845291905290205460ff1690565b6113c4848484848080601f01602080910402602001604051908101604052809392919081815260200183838082843760009201829052509250611b31915050565b600080611ed78484612f2f565b50546001600160a01b03908116600090815260036020526040902054610100900416949350505050565b848314611f205760405162461bcd60e51b8152600401610920906141a2565b848114611f3f5760405162461bcd60e51b8152600401610920906141a2565b60005b8581101561189657611ff3878783818110611f5f57611f5f613d10565b9050602002810190611f7191906141cb565b878785818110611f8357611f83613d10565b9050602002810190611f9591906141cb565b8080601f016020809104026020016040519081016040528093929190818152602001838380828437600092019190915250899250889150879050818110611fde57611fde613d10565b90506020020160208101906106c491906137a8565b80611ffd81613d60565b915050611f42565b61200d61301d565b82811461202c5760405162461bcd60e51b8152600401610920906141a2565b33600090815260046020818152604080842054845260028252808420600154825163367fed3f60e21b8152925191959485946001600160a01b039092169363d9ffb4fc93818301939290918290030181865afa158015612090573d6000803e3d6000fd5b505050506040513d601f19601f820116820180604052508101906120b49190613ee1565b6001600160a01b031663c84a49226040518163ffffffff1660e01b8152600401602060405180830381865afa1580156120f1573d6000803e3d6000fd5b505050506040513d601f19601f820116820180604052508101906121159190613efe565b905060005b868110156121b9578188888381811061213557612135613d10565b90506020020135106121815760405162461bcd60e51b815260206004820152601560248201527415dbdc9ad95c88191bd95cc81b9bdd08195e1a5cdd605a1b6044820152606401610920565b85858281811061219357612193613d10565b90506020020135836121a59190613cea565b9250806121b181613d60565b91505061211a565b5061271082111561220c5760405162461bcd60e51b815260206004820152601a60248201527f4f7665722031303025206f662043557320616c6c6f63617465640000000000006044820152606401610920565b336001600160a01b03167fa27699da150f8443c51cda13c28a1cbfb78ee3b4055de58197e770999fc23fbd8460020189898989604051612250959493929190614243565b60405180910390a250505050505050565b6001600160a01b03811660009081526007602052604090205460ff166122c05760405162461bcd60e51b815260206004820152601460248201527314dd1c985d1959de481b9bdd08185b1b1bddd95960621b6044820152606401610920565b3360008181526003602052604090819020805460ff196001600160a01b03861661010002166001600160a81b0319909116176001179055517fe31c0bedb29ec4df4a7c3d8d8c0e4ad6bf3648906837d5400d61a94410c5e5bb906123349084906001600160a01b0391909116815260200190565b60405180910390a250565b6000606061236c604080516080810182526000808252602082015260609181018290528181019190915290565b955095509592505050565b61238082610ebe565b61238981612f18565b6113c48383613108565b600061239f6005613259565b905090565b6000806123b18585612f2f565b915091506123be82612fb8565b60018201546001600160a01b0316156123ef5760018201546001600160a01b03166000908152600460205260408120555b6001600160a01b0383161561248b576001600160a01b0383166000908152600460205260409020541561246f5760405162461bcd60e51b815260206004820152602260248201527f47617465776179206164647265737320616c7265616479207265676973746572604482015261195960f21b6064820152608401610920565b6001600160a01b03831660009081526004602052604090208190555b6001820180546001600160a01b0319166001600160a01b03851617905560405133907f39cabfa8731da74e931aee9746250190051269d4d0c37ec9fb8276a32b1f660190610ca4908890889088906142ef565b60408051608081018252600080825260208201526060918101829052818101919091526002600084846040516125159291906140ad565b60408051918290039091208252602080830193909352908101600020815160808101835281546001600160a01b03908116825260018301541693810193909352600281018054919284019161256990613d26565b80601f016020809104026020016040519081016040528092919081815260200182805461259590613d26565b80156125e25780601f106125b7576101008083540402835291602001916125e2565b820191906000526020600020905b8154815290600101906020018083116125c557829003601f168201915b505050505081526020016003820180546125fb90613d26565b80601f016020809104026020016040519081016040528092919081815260200182805461262790613d26565b80156126745780601f1061264957610100808354040283529160200191612674565b820191906000526020600020905b81548152906001019060200180831161265757829003601f168201915b505050505081525050905092915050565b61268d61301d565b33600090815260036020526040902060010154156127015760405162461bcd60e51b815260206004820152602b60248201527f5374616b6520616c7265616479206578697374732c2063616c6c20616464537460448201526a185ad9481a5b9cdd19585960aa1b6064820152608401610920565b600061271684846001600160801b0316610d7c565b90506000600160009054906101000a90046001600160a01b03166001600160a01b031663853b97c26040518163ffffffff1660e01b8152600401602060405180830381865afa15801561276d573d6000803e3d6000fd5b505050506040513d601f19601f820116820180604052508101906127919190613ee1565b6001600160a01b031663aea0e78b6040518163ffffffff1660e01b8152600401602060405180830381865afa1580156127ce573d6000803e3d6000fd5b505050506040513d601f19601f820116820180604052508101906127f29190613f7a565b905060008361280a57612805858361431b565b612813565b6001600160801b035b6040805160c0810182528881526001600160801b0385811660208084019182528583168486019081528b8416606086019081528b151560808701908152600060a088018181523382526003958690529881209751600189015594519251928616600160801b9387168402176002880155905192860180549151939095166001600160881b031990911617911515021790915591516004820155919250906128bc90600501612f22565b905060005b815181101561290a576128f78282815181106128df576128df613d10565b6020026020010151600561326390919063ffffffff16565b508061290281613d60565b9150506128c1565b506000546040516323b872dd60e01b8152336004820152306024820152604481018990526001600160a01b03909116906323b872dd906064016020604051808303816000875af1158015612962573d6000803e3d6000fd5b505050506040513d601f19601f820116820180604052508101906129869190613f5d565b50604080518881526001600160801b03858116602083015284168183015260608101869052905133917f85362f63fb0e3050a216decb3a7297e2aaff6cbf5b22583c073118d7efc8a47b919081900360800190a28415612a105760405133907feff5f78e20f1cd92a537c3cdbaeaea11ad293aace5d7262ed93f2f33b42a828f90600090a2611896565b6040516001600160801b038316815233907f17679fc77cdf7f6b7d2af4cb30497f3e81088fde6fdb20ca48d31372bc2af00690602001612250565b33600090815260036020819052604090912090810154600190910190600160801b900460ff16612ab65760405162461bcd60e51b8152602060048201526016602482015275105d5d1bd15e1d195b9cda5bdb88191a5cd8589b195960521b6044820152606401610920565b60028101805460ff60801b19811690915560018201546001600160801b03918216918291612ae69143911661326f565b612af0919061433b565b612afb90600161431b565b612b059190614361565b6001820154612b1d91906001600160801b031661431b565b6001820180546001600160801b03908116600160801b938216840217918290556040519290910416815233907f17679fc77cdf7f6b7d2af4cb30497f3e81088fde6fdb20ca48d31372bc2af00690602001612334565b612b7b61301d565b3360009081526003602052604090206001018054612bec5760405162461bcd60e51b815260206004820152602860248201527f43616e6e6f7420616464207374616b65207768656e206e6f7468696e672077616044820152671cc81cdd185ad95960c21b6064820152608401610920565b6001810154436001600160801b039091161115612c425760405162461bcd60e51b815260206004820152601460248201527314dd185ad9481a5cc81b9bdd081cdd185c9d195960621b6044820152606401610920565b6002810154600090612c5e9084906001600160801b0316610d7c565b82546002840154919250600091612c7e91906001600160801b0316610d7c565b9050600160009054906101000a90046001600160a01b03166001600160a01b031663853b97c26040518163ffffffff1660e01b8152600401602060405180830381865afa158015612cd3573d6000803e3d6000fd5b505050506040513d601f19601f82011682018060405250810190612cf79190613ee1565b6001600160a01b031663aea0e78b6040518163ffffffff1660e01b8152600401602060405180830381865afa158015612d34573d6000803e3d6000fd5b505050506040513d601f19601f82011682018060405250810190612d589190613f7a565b6001840180546001600160801b0319166001600160801b03929092169190911790556002830154600160801b900460ff16612db25760028301546001840154612dad916001600160801b03908116911661431b565b612dbb565b6001600160801b035b6001840180546001600160801b03928316600160801b02921691909117905560038301819055825484908490600090612df5908490613cea565b90915550506000546040516323b872dd60e01b8152336004820152306024820152604481018690526001600160a01b03909116906323b872dd906064016020604051808303816000875af1158015612e51573d6000803e3d6000fd5b505050506040513d601f19601f82011682018060405250810190612e759190613f5d565b506001830154604080518681526001600160801b038084166020830152600160801b909304909216908201526060810183905233907f85362f63fb0e3050a216decb3a7297e2aaff6cbf5b22583c073118d7efc8a47b906080016109d8565b60005b818110156113fd57612f06838383818110612ef457612ef4613d10565b905060200281019061040691906141cb565b80612f1081613d60565b915050612ed7565b6114a2813361329c565b60606000610eb7836132d5565b6000808383604051612f429291906140ad565b6040805191829003909120600081815260026020529190912080549093509091506001600160a01b0316612fb15760405162461bcd60e51b815260206004820152601660248201527511d85d195dd85e481b9bdd081c9959da5cdd195c995960521b6044820152606401610920565b9250929050565b80546001600160a01b031633146114a25760405162461bcd60e51b8152602060048201526024808201527f4f6e6c79206f70657261746f722063616e2063616c6c20746869732066756e636044820152633a34b7b760e11b6064820152608401610920565b6000805160206144038339815191525460ff161561304e5760405163d93c066560e01b815260040160405180910390fd5b565b6000610eb78383613331565b60006000805160206143e38339815191526130778484611e51565b6130f7576000848152602082815260408083206001600160a01b03871684529091529020805460ff191660011790556130ad3390565b6001600160a01b0316836001600160a01b0316857f2f8788117e7eff1d82e926ec794901d17c78024a50270940304540a733656f0d60405160405180910390a46001915050610bba565b6000915050610bba565b5092915050565b60006000805160206143e38339815191526131238484611e51565b156130f7576000848152602082815260408083206001600160a01b0387168085529252808320805460ff1916905551339287917ff6391f5c32d9c69d2a47ea670b442974b53935d1edc7fd64eb21e047a839171b9190a46001915050610bba565b61318c61341a565b600080516020614403833981519152805460ff191681557f5db9ee0a495bf2e6ff9c91a7834c1ba4fdd244a5e8aa4e537bd38aeae4b073aa335b6040516001600160a01b03909116815260200160405180910390a150565b6131ec61344a565b6131f760003361305c565b506114a26000805160206143c38339815191523361305c565b61321861301d565b600080516020614403833981519152805460ff191660011781557f62e78cea01bee320cd4e420270b5ea74000d11b0c9f74754ebdbfc544b05a258336131c6565b6000610bba825490565b6000610eb78383613493565b6000826001600160801b0316826001600160801b03161061329257506000610bba565b610eb7828461438c565b6132a68282611e51565b611af15760405163e2517d3f60e01b81526001600160a01b038216600482015260248101839052604401610920565b60608160000180548060200260200160405190810160405280929190818152602001828054801561332557602002820191906000526020600020905b815481526020019060010190808311613311575b50505050509050919050565b600081815260018301602052604081205480156130f7576000613355600183613cfd565b855490915060009061336990600190613cfd565b90508082146133ce57600086600001828154811061338957613389613d10565b90600052602060002001549050808760000184815481106133ac576133ac613d10565b6000918252602080832090910192909255918252600188019052604090208390555b85548690806133df576133df6143ac565b600190038181906000526020600020016000905590558560010160008681526020019081526020016000206000905560019350505050610bba565b6000805160206144038339815191525460ff1661304e57604051638dfc202b60e01b815260040160405180910390fd5b7ff0c57e16840df040f15088dc2f81fe391c3923bec73e23a9662efc9c229c6a0054600160401b900460ff1661304e57604051631afcd79f60e31b815260040160405180910390fd5b60008181526001830160205260408120546134da57508154600181810184556000848152602080822090930184905584548482528286019093526040902091909155610bba565b506000610bba565b5080546134ee90613d26565b6000825580601f106134fe575050565b601f0160209004906000526020600020908101906114a291905b8082111561352c5760008155600101613518565b5090565b6001600160a01b03811681146114a257600080fd5b803561355081613530565b919050565b80151581146114a257600080fd5b60008060006060848603121561357857600080fd5b833561358381613530565b9250602084013561359381613555565b915060408401356135a381613555565b809150509250925092565b600080604083850312156135c157600080fd5b50508035926020909101359150565b6000815180845260005b818110156135f6576020818501810151868301820152016135da565b506000602082860101526020601f19601f83011685010191505092915050565b6000602080830181845280855180835260408601915060408160051b870101925083870160005b8281101561366b57603f198886030184526136598583516135d0565b9450928501929085019060010161363d565b5092979650505050505050565b60006020828403121561368a57600080fd5b81356001600160e01b031981168114610eb757600080fd5b6000602082840312156136b457600080fd5b5035919050565b60008083601f8401126136cd57600080fd5b5081356001600160401b038111156136e457600080fd5b602083019150836020828501011115612fb157600080fd5b6000806000806040858703121561371257600080fd5b84356001600160401b038082111561372957600080fd5b613735888389016136bb565b9096509450602087013591508082111561374e57600080fd5b5061375b878288016136bb565b95989497509550505050565b6000806020838503121561377a57600080fd5b82356001600160401b0381111561379057600080fd5b61379c858286016136bb565b90969095509350505050565b6000602082840312156137ba57600080fd5b8135610eb781613530565b600080604083850312156137d857600080fd5b8235915060208301356137ea81613530565b809150509250929050565b6000806040838503121561380857600080fd5b823561381381613530565b915060208301356137ea81613530565b602081526000610eb760208301846135d0565b6001600160801b03811681146114a257600080fd5b6000806040838503121561385e57600080fd5b8235915060208301356137ea81613836565b634e487b7160e01b600052604160045260246000fd5b6000806000806060858703121561389c57600080fd5b84356001600160401b03808211156138b357600080fd5b6138bf888389016136bb565b909650945060208701359150808211156138d857600080fd5b818701915087601f8301126138ec57600080fd5b8135818111156138fe576138fe613870565b604051601f8201601f19908116603f0116810190838211818310171561392657613926613870565b816040528281528a602084870101111561393f57600080fd5b82602086016020830137600060208483010152809650505050505061396660408601613545565b905092959194509250565b60008083601f84011261398357600080fd5b5081356001600160401b0381111561399a57600080fd5b6020830191508360208260051b8501011115612fb157600080fd5b600080600080600080606087890312156139ce57600080fd5b86356001600160401b03808211156139e557600080fd5b6139f18a838b01613971565b90985096506020890135915080821115613a0a57600080fd5b613a168a838b01613971565b90965094506040890135915080821115613a2f57600080fd5b50613a3c89828a01613971565b979a9699509497509295939492505050565b60008060008060408587031215613a6457600080fd5b84356001600160401b0380821115613a7b57600080fd5b613a8788838901613971565b90965094506020870135915080821115613aa057600080fd5b5061375b87828801613971565b8060608101831015610bba57600080fd5b600080600080600060808688031215613ad657600080fd5b85356001600160401b0380821115613aed57600080fd5b613af989838a01613aad565b96506020880135915080821115613b0f57600080fd5b613b1b89838a01613aad565b95506040880135915080821115613b3157600080fd5b613b3d89838a01613971565b90955093506060880135915080821115613b5657600080fd5b50860160808189031215613b6957600080fd5b809150509295509295909350565b600060018060a01b0380835116845280602084015116602085015250604082015160806040850152613bac60808501826135d0565b905060608301518482036060860152613bc582826135d0565b95945050505050565b838152606060208201526000613be760608301856135d0565b8281036040840152613bf98185613b77565b9695505050505050565b600080600060408486031215613c1857600080fd5b83356001600160401b03811115613c2e57600080fd5b613c3a868287016136bb565b90945092505060208401356135a381613530565b602081526000610eb76020830184613b77565b600080600060608486031215613c7657600080fd5b83359250602084013561359381613836565b60008060208385031215613c9b57600080fd5b82356001600160401b03811115613cb157600080fd5b61379c85828601613971565b634e487b7160e01b600052601160045260246000fd5b8082028115828204841417610bba57610bba613cbd565b80820180821115610bba57610bba613cbd565b81810381811115610bba57610bba613cbd565b634e487b7160e01b600052603260045260246000fd5b600181811c90821680613d3a57607f821691505b602082108103613d5a57634e487b7160e01b600052602260045260246000fd5b50919050565b600060018201613d7257613d72613cbd565b5060010190565b601f8211156113fd57600081815260208120601f850160051c81016020861015613da05750805b601f850160051c820191505b81811015613dbf57828155600101613dac565b505050505050565b6001600160401b03831115613dde57613dde613870565b613df283613dec8354613d26565b83613d79565b6000601f841160018114613e265760008515613e0e5750838201355b600019600387901b1c1916600186901b178355611e4a565b600083815260209020601f19861690835b82811015613e575786850135825560209485019460019092019101613e37565b5086821015613e745760001960f88860031b161c19848701351681555b505060018560011b0183555050505050565b81835281816020850137506000828201602090810191909152601f909101601f19169091010190565b604081526000613ec3604083018688613e86565b8281036020840152613ed6818587613e86565b979650505050505050565b600060208284031215613ef357600080fd5b8151610eb781613530565b600060208284031215613f1057600080fd5b5051919050565b634e487b7160e01b600052601260045260246000fd5b600082613f3c57613f3c613f17565b500490565b602081526000613f55602083018486613e86565b949350505050565b600060208284031215613f6f57600080fd5b8151610eb781613555565b600060208284031215613f8c57600080fd5b8151610eb781613836565b600060208284031215613fa957600080fd5b815160ff81168114610eb757600080fd5b600181815b80851115613ff5578160001904821115613fdb57613fdb613cbd565b80851615613fe857918102915b93841c9390800290613fbf565b509250929050565b60008261400c57506001610bba565b8161401957506000610bba565b816001811461402f576002811461403957614055565b6001915050610bba565b60ff84111561404a5761404a613cbd565b50506001821b610bba565b5060208310610133831016604e8410600b8410161715614078575081810a610bba565b6140828383613fba565b806000190482111561409657614096613cbd565b029392505050565b6000610eb760ff841683613ffd565b8183823760009101908152919050565b81516001600160401b038111156140d6576140d6613870565b6140ea816140e48454613d26565b84613d79565b602080601f83116001811461411f57600084156141075750858301515b600019600386901b1c1916600185901b178555613dbf565b600085815260208120601f198616915b8281101561414e5788860151825594840194600190910190840161412f565b508582101561416c5787850151600019600388901b60f8161c191681555b5050505050600190811b01905550565b604081526000614190604083018587613e86565b8281036020840152613bf981856135d0565b6020808252600f908201526e098cadccee8d040dad2e6dac2e8c6d608b1b604082015260600190565b6000808335601e198436030181126141e257600080fd5b8301803591506001600160401b038211156141fc57600080fd5b602001915036819003821315612fb157600080fd5b81835260006001600160fb1b0383111561422a57600080fd5b8260051b80836020870137939093016020019392505050565b60608152600080875461425581613d26565b80606086015260806001808416600081146142775760018114614291576142c2565b60ff1985168884015283151560051b8801830195506142c2565b8c60005260208060002060005b868110156142b95781548b820187015290840190820161429e565b8a018501975050505b505050505082810360208401526142da818789614211565b905082810360408401526116a6818587614211565b604081526000614303604083018587613e86565b905060018060a01b0383166020830152949350505050565b6001600160801b0381811683821601908082111561310157613101613cbd565b60006001600160801b038084168061435557614355613f17565b92169190910492915050565b6001600160801b0381811683821602808216919082811461438457614384613cbd565b505092915050565b6001600160801b0382811682821603908082111561310157613101613cbd565b634e487b7160e01b600052603160045260246000fdfe65d7a28e3265b37a6474929f336521b332c1681b933f6cb9f3376673440d862a02dd7bc7dec4dceedda775e58dd541e08a116c6c53815c0bd028192f7b626800cd5ed15c6e187e77e9aee88184c21f4f2182ab5827cb3b7e07fbedcd63f03300a26469706673582212203e7e446a2b49d3628cc75a3e73294aabe2dc5a0bdc950c1ee7655505c6c610c464736f6c63430008140033",
    "linkReferences": {}
  },
  "methodIdentifiers": {
    "DEFAULT_ADMIN_ROLE()": "a217fddf",
    "PAUSER_ROLE()": "e63ab1e9",
    "addStake(uint256)": "eb4f16b5",
    "allocateComputationUnits(uint256[],uint256[])": "b785a2e6",
    "averageBlockTime()": "233dedf1",
    "canUnstake(address)": "85f4498b",
    "computationUnitsAmount(uint256,uint256)": "1c0fa1c8",
    "computationUnitsAvailable(bytes)": "44d4bea8",
    "defaultStrategy()": "fac5bb9b",
    "disableAutoExtension()": "e6c7f21b",
    "enableAutoExtension()": "13f117f2",
    "gatewayByAddress(address)": "429773fb",
    "getActiveGateways(uint256,uint256)": "01a99356",
    "getActiveGatewaysCount()": "d87113e5",
    "getCluster(bytes)": "585a6a6d",
    "getGateway(bytes)": "dcefedaf",
    "getMetadata(bytes)": "75734be8",
    "getMyGateways(address)": "2c17a07f",
    "getRoleAdmin(bytes32)": "248a9ca3",
    "getStake(address)": "7a766460",
    "getUsedStrategy(bytes)": "94f3c725",
    "grantRole(bytes32,address)": "2f2ff15d",
    "hasRole(bytes32,address)": "91d14854",
    "initialize(address,address)": "485cc955",
    "isStrategyAllowed(address)": "67c1def9",
    "mana()": "bdb001a7",
    "maxGatewaysPerCluster()": "bc9c0e62",
    "pause()": "8456cb59",
    "paused()": "5c975abb",
    "register(bytes)": "82fbdc9c",
    "register(bytes,string)": "92255fbf",
    "register(bytes,string,address)": "876ab349",
    "register(bytes[],string[],address[])": "b1a7e279",
    "renounceRole(bytes32,address)": "36568abe",
    "revokeRole(bytes32,address)": "d547741f",
    "router()": "f887ea40",
    "setAverageBlockTime(uint256)": "3736d853",
    "setGatewayAddress(bytes,address)": "dacfab0d",
    "setIsStrategyAllowed(address,bool,bool)": "017a02c3",
    "setMana(uint256)": "0def8b8a",
    "setMaxGatewaysPerCluster(uint256)": "3abcf38c",
    "setMetadata(bytes,string)": "0fe9fb66",
    "stake(uint256,uint128)": "7acfc9e2",
    "stake(uint256,uint128,bool)": "e3fa31ed",
    "staked(address)": "98807d84",
    "supportsInterface(bytes4)": "01ffc9a7",
    "testAbi(uint256[][3],(address,address,bytes,string)[3],(address,address,bytes,string)[],(address,address,bytes,string))": "bb952d4e",
    "token()": "fc0c546a",
    "unpause()": "3f4ba83a",
    "unregister(bytes)": "27d6c032",
    "unregister(bytes[])": "f586857a",
    "unstake()": "2def6620",
    "useStrategy(address)": "b8050a5d"
  },
  "id": 84
}